:020000040800F2
:10000000A818002021020008831E0008B71A000863
:10001000811E000897040008E92500080000000080
:10002000000000000000000000000000890100083E
:100030000505000800000000CD010008051F0008AC
:100040003B0200083B0200083B0200083B0200089C
:100050003B0200083B0200083B0200083B0200088C
:100060003B0200083B0200083B0200083B0200087C
:100070003B0200083B02000899040008A5040008A0
:100080003B0200083B0200083B0200083B0200085C
:100090003B0200083B0200083B0200083B0200084C
:1000A0003B0200083B0200083B0200083B0200083C
:1000B0003B0200083B020008911F00083B020008B9
:1000C0003B0200083B0200083B0200083B0200081C
:1000D0003B0200085D2500083B0200083B020008C7
:1000E0003B0200083B0200083B02000800F002F857
:1000F00000F03AF80AA090E8000C82448344AAF188
:100100000107DA4501D100F02FF8AFF2090EBAE885
:100110000F0013F0010F18BFFB1A43F0010318473B
:10012000A4300000C4300000103A24BF78C878C161
:10013000FAD8520724BF30C830C144BF04680C60ED
:10014000704700000023002400250026103A28BF35
:1001500078C1FBD8520728BF30C148BF0B60704739
:100160001FB51FBD10B510BD00F05CF91146FFF7BB
:10017000F7FF02F065FA00F07AF903B4FFF7F2FF37
:1001800003BC00F081F90000224B19680868B0E850
:10019000F00F80F30988BFF36F8F4FF0000080F3FA
:1001A00011884EF00D0E70470000000006480068F0
:1001B000006880F3088862B661B6BFF34F8FBFF363
:1001C0006F8F00DF00BF00BF08ED00E0EFF3098094
:1001D000BFF36F8F0F4B1A6820E9F00F106008B55E
:1001E0004FF0500080F31188BFF34F8FBFF36F8F34
:1001F00002F0E2FD4FF0000080F31188BDE80840F6
:1002000019680868B0E8F00F80F30988BFF36F8FB2
:10021000704700BF28000020EFF305807047000002
:100220000948804709480047FEE7FEE7FEE7FEE78A
:10023000FEE7FEE7FEE7FEE7FEE7FEE704480549C6
:10024000054A064B704700008F1F0008ED000008AC
:10025000A8120020A8180020A8140020A81400202C
:1002600010B5431C02E010F8011B71B18107FAD1EF
:100270004FF0013202C88C1A8C4314EAC211F9D033
:10028000C01A0A0603D0C01E10BDC01A10BD0A0451
:1002900001D0801E10BD0902FCD0401E10BD032AF3
:1002A00040F2308010F0030C00F0158011F8013B93
:1002B000BCF1020F624498BF11F801CB00F8013B7A
:1002C00038BF11F8013BA2F1040298BF00F801CB3E
:1002D00038BF00F8013B11F0030300F02580083A15
:1002E000C0F0088051F8043B083A51F804CBA0E86C
:1002F0000810F5E7121D5CBF51F8043B40F8043BC1
:10030000AFF30080D20724BF11F8013B11F801CBF5
:1003100048BF11F8012B24BF00F8013B00F801CBC6
:1003200048BF00F8012B704710B5203AC0F00B8091
:10033000B1E81850203AA0E81850B1E81850A0E8E9
:100340001850BFF4F5AF5FEA027C24BFB1E8185043
:10035000A0E8185044BF18C918C0BDE810405FEAB3
:10036000827C24BF51F8043B40F8043B08BF70472F
:10037000D20728BF31F8023B48BF11F8012B28BF34
:1003800020F8023B48BF00F8012B70474FF00002F5
:100390000429C0F0128010F0030C00F01B80CCF197
:1003A000040CBCF1020F18BF00F8012BA8BF20F805
:1003B000022BA1EB0C0100F00DB85FEAC17C24BF59
:1003C00000F8012B00F8012B48BF00F8012B704703
:1003D0004FF0000200B5134694469646203922BFDE
:1003E000A0E80C50A0E80C50B1F12001BFF4F7AF29
:1003F000090728BFA0E80C5048BF0CC05DF804EB0B
:10040000890028BF40F8042B08BF704748BF20F878
:10041000022B11F0804F18BF00F8012B7047704776
:1004200070477047754600F02BF8AE4605006946E8
:10043000534620F00700854618B020B5FFF7FEFEB2
:10044000BDE820404FF000064FF000074FF00008D5
:100450004FF0000B21F00701AC46ACE8C009ACE856
:10046000C009ACE8C009ACE8C0098D46704710B5BA
:100470000446AFF300802046BDE81040FFF77DBE84
:10048000004870474812002001491820ABBEFEE723
:10049000260002007047FEE7014800F0A5B8000002
:1004A000AC040020014800F09FB800006804002060
:1004B00030B590F840500124AC40C56B6C600468C6
:1004C00063604368102B036803D099600068C260C2
:1004D00030BD9A600068C16030BD0000002208494C
:1004E00002E0521CD2B2491C0B78082B02D0042A1D
:1004F000F7D970478A78092AFBD14978017070478B
:1005000074030020704772B6FEE710B590F8211012
:100510000022022905D00421816380F820200120D7
:1005200010BD01680B6823F00E030B6001680B68B7
:1005300023F001030B6090F84030C46B012101FAF5
:1005400003F3636080F8211080F82020104610BD6E
:1005500010B590F821100024022903D004218163F2
:1005600001243DE001680A6822F00E020A60016879
:100570000A6822F001020A601A4A0168914201D118
:10058000012121E0174A1432914201D110211BE0D0
:10059000144A2832914201D1891515E0114A3C32A2
:1005A000914201D189140FE00E4A5032914202D19A
:1005B0004FF4803108E00B4A6432914202D14FF48B
:1005C000801101E04FF08071064A083A5160012124
:1005D00080F82110002180F82010416B01B188477C
:1005E000204610BD080002402DE9F05FC16B0C6889
:1005F00001680B68D0F840C0042202FA0CF2494DA1
:10060000DFF824A1494E4A4FDFF828B1DFF828E18E
:1006100022422CD05A072AD50A68920603D40A68C7
:1006200022F004020A600168A94201D1042219E003
:10063000514501D1402215E0B14202D14FF4806210
:1006400010E0B94202D14FF480420BE0594502D18B
:100650004FF4802206E0714502D14FF4800201E0A0
:100660004FF080622F4908394A60C16A3BE04FF081
:10067000020808FA0CF818EA040F4FF000094FF0CE
:10068000010235D05FEA837832D50B689B0605D42A
:100690000B6823F00A030B6080F821200168A9424F
:1006A00001D1022219E0514501D1202215E0B142C9
:1006B00002D14FF4007210E0B94202D14FF400525F
:1006C0000BE0594502D14FF4003206E0714502D1EA
:1006D0004FF4001201E04FF00072124908394A60ED
:1006E00080F82090816A00291AD0BDE8F05F0847A1
:1006F000082505FA0CF5254212D01B0710D50B680A
:1007000023F00E030B6090F84010C36B02FA01F166
:100710005960826380F8212080F82090016BE2E725
:10072000BDE8F09F080002401C000240300002407B
:1007300044000240580002406C00024030B528B32B
:1007400008C8134914221944B1FBF2F18900C163AE
:1007500010498163022141771A6843F6F0718A4398
:10076000D0E900142143D0E902452C432143046918
:1007700021434469214384692143114319600021C5
:100780004163012242770177084630BD012030BD28
:10079000F8FFFDBF0000024070B5044690F820004D
:1007A000002501280CD0012084F8200094F8216055
:1007B0000020012E06D084F820000225284670BDB6
:1007C000022070BD022684F82160A06320680668BC
:1007D00026F0010606602046FFF76AFEE06A002860
:1007E0002068016802D041F00E0106E021F004010A
:1007F00001602068016841F00A0101602068016819
:1008000041F001010160D9E72DE9F84FDFF8B89117
:100810000024A9F1040B23460F2709F1040AABF1C8
:10082000040EC9E00125A5402A40AA427DD1674EA9
:10083000D1F804C0ACEB0608B44532D014DCBCF1EE
:10084000030F3AD009DCBCF1000F2AD0BCF1010F34
:100850001CD0BCF1020F31D11DE0BCF1110F17D03B
:10086000BCF1120F2AD119E0B8F5881F19D006DCA7
:10087000B8F5803F15D0B8F5801F1FD111E0B8F54D
:10088000001F0ED0B8F5041F18D10AE0CB6815E0A0
:10089000CB681B1D12E0CB6808330FE0CB680C332C
:1008A0000CE08B682BB1012B4FF0080303D045619E
:1008B00004E0042302E0056100E00023FF2A01D8E0
:1008C000064601E000F104064FEA840501D9A5F1CE
:1008D0002005D6F8008007FA05FC28EA0C0803FA80
:1008E00005F548EA0508C6F800804D68ED0062D5B8
:1008F000374DAE6946F00106AE61AD6924F00306DE
:1009000005F001050095334D06EB050CDCF80850A9
:10091000A607360F07FA06F825EA0805DFF8B880BB
:10092000404503D14FF0000817E044E0DFF8AC8009
:10093000404502D14FF001080FE0DFF8A4804045A8
:1009400002D14FF0020808E0DFF89880404502D15C
:100950004FF0030801E04FF0040808FA06F848EAEF
:100960000508CCF808804D68D9F80060ED024D46C6
:1009700001D5164300E096432E604D68DAF800601A
:10098000AD02554601D5164300E096432E604D68F2
:10099000DBF80060AD035D4601D5164300E09643E9
:1009A0002E604D68DEF80060ED03754601D51643F4
:1009B00000E096432E60641C0D682A46E5407FF4F3
:1009C00031AFBDE8F88F00000804014000001110AD
:1009D000001002400000014000080140000C0140EE
:1009E00000100140001401408068084000D0012040
:1009F00070470AB1016170470904FBE7014880684C
:100A000070470000140000200248816802781144F9
:100A10008160704714000020074810B5016841F05C
:100A200010010160032000F0A7F80F2000F006F885
:100A300000F050F8002010BD0020024030B50546FF
:100A40001F4887B0C16941F00401C161C06906A9AE
:100A500000F00400009001A800F036F90498B0B14D
:100A600000F052F940001749174AB0FBF1F117485E
:100A7000491E0260416040F2E7320021C0E90321D3
:100A80008160816100F04CFB040003D015E000F0B0
:100A90003BF9E8E70D4800F071FB04000DD11E2082
:100AA00000F03CF8102D07D2002229461E2000F04D
:100AB00043F80748056000E0012407B0204630BD38
:100AC0000010024040420F0000080040F0040020E7
:100AD000180000200F4808B5816941F001018161CB
:100AE000816901F001010091C16941F08051C1614A
:100AF000C069002200F0805000900F21901E00F08D
:100B00001BF80548416821F0E06141F00071416047
:100B100008BD00000010024000000140002809DB71
:100B200000F01F02012191404009800000F1E02007
:100B3000C0F8001170470000F0B40E4B1B680C4663
:100B4000C3F30223C3F10705042D00D90425191DA1
:100B5000072901D2002300E0DB1E012606FA05F179
:100B6000491E214099409E40761E16403143F0BCFC
:100B700001F056BD0CED00E0064900F007020868E0
:100B80004FF6FF03184040EA0220034A1043086072
:100B9000704700000CED00E00000FA052DE9F04779
:100BA0000F46050061D0434E306800F00700B842A0
:100BB00009D2306820F0070038433060306800F018
:100BC0000700B84251D128683B4C810712D5400735
:100BD00003D5606840F4E06060602878000703D5C2
:100BE000606840F4605060606068A96820F0F000C0
:100BF000084360602878C00728D06868012810D0B2
:100C00002168022810D0890700292EDA616821F0B6
:100C1000030101436160FFF7F1FE804641F288392C
:100C20000DE021688903EFE78901EDE7FFF7E6FEB4
:100C3000A0EB0801494502D90320BDE8F0876068B0
:100C4000696800F00C00B0EB810FEFD1306800F064
:100C50000700B8420BD9306820F0070038433060F5
:100C6000306800F00700B84201D00120E5E728789D
:100C7000400705D56068E96820F4E06008436060DB
:100C80002878000706D56068296920F4605040EA9A
:100C9000C100606000F058F86168084AC1F30311B0
:100CA000515CC8400649086006480068FFF7C6FE68
:100CB0000020C2E700200240001002407E31000800
:100CC00020000020180000200F2202600C4A536808
:100CD00003F003034360536803F0F0038360536839
:100CE00003F4E063C36052684FF4E06303EAD202A6
:100CF00002610448006800F00700086070470000C7
:100D0000001002400020024004480549006849687C
:100D1000044AC1F30221515CC84070472000002002
:100D2000001002408E3100080448054900684968F7
:100D3000044AC1F3C221515CC84070472000002022
:100D4000001002408E3100080E4A51680E4801F032
:100D50000C03042B11D0082B0FD10C48C1F3834393
:100D6000C903C05C0AD55168084AC1F34041921ECC
:100D7000515C054A5043B0FBF1F0704704494843C9
:100D8000704700000010024000127A006E31000827
:100D900000093D002DE9F84F040070D02078C04DC7
:100DA000C00749D06868C0F38100012807D068688F
:100DB000C0F38100022809D16868C00306D52868FD
:100DC000800339D560680028E7D035E06068B0F569
:100DD000803F0BD010B1B0F5A02F11D0286820F4BF
:100DE00080302860286820F4802002E0286840F4E1
:100DF00080302860606890B1FFF700FE06460AE088
:100E0000286840F480202860F0E700BFFFF7F6FD77
:100E1000801B642873D828688003F7D50CE0FFF79F
:100E2000EDFD064605E000BFFFF7E8FD801B6428E6
:100E3000F0D828688003F7D420789A4E80074FF0C6
:100E400001094FF0000839D5686810F00C0F07D081
:100E50006868C0F38100022809D16868C00306D41D
:100E60002868800714D52069012808D110E020697E
:100E7000B0B1C6F80090FFF7C1FD074605E00AE1F2
:100E8000FFF7BCFDC01B0228C4D828688007F7D52F
:100E90002868616920F0F80040EAC10028600DE090
:100EA000C6F80080FFF7AAFD074604E0FFF7A6FD9D
:100EB000C01B022823D828688007F7D420780007B1
:100EC0002CD57948A169D9B1C0F80090FFF796FDFB
:100ED000074604E0FFF792FDC01B02280FD8686A9E
:100EE0008007F7D571484FF4FA510068B0FBF1F074
:100EF000009000BF0098411E0091FAD20EE080E001
:100F0000C0F80080FFF77AFD074604E0FFF776FDA2
:100F1000C01B022875D8686A8007F7D4207840077C
:100F200060D5E8690027C00008D4E86940F0805027
:100F3000E861E869012700F0805000905C48016892
:100F4000C90513D40168834641F480710160FFF73D
:100F500055FD824606E000BFFFF750FDA0EB0A00FA
:100F600064284ED8DBF80000C005F5D5E0680128FC
:100F70000AD008B1052813D0286A20F001002862A1
:100F8000286A20F0040002E0286A40F0010028628C
:100F9000E06841F2883B98B1FFF730FD82460BE0F4
:100FA000286A40F004002862EEE700BFFFF726FD44
:100FB000A0EB0A0159455AD8286A8007F6D50CE0FB
:100FC000FFF71CFD824605E0FFF718FDA0EB0A01C4
:100FD00059454CD8286A8007F6D41FB1E86920F03B
:100FE0008050E861E06988B36968C1F38101022932
:100FF00044D00228C6F8608004D0FFF7FFFC044606
:1010000038E034E0FFF7FAFC074604E0FFF7F6FCAF
:10101000C01B02282BD828688001F7D4206AB0F5BD
:10102000803F05D16868A16820F4003008436860FB
:10103000D4E908010843696821F474110843686021
:10104000C6F86090FFF7DAFC044606E025E000BF32
:10105000FFF7D4FC001B022809D828688001F7D5C7
:101060001BE000BFFFF7CAFC001B022802D90320C7
:10107000BDE8F88F28688001F4D40EE00128F7D08D
:101080006868226A00F48031914204D1616A00F4F8
:101090007010884201D00120EAE70020E8E7000054
:1010A0000010024000004242800442422000002022
:1010B000007000407047704770B590F83C20012ADE
:1010C00026D0012480F83C40022280F83D200368AD
:1010D0005A689D6822F070060A6832435A600D4BC8
:1010E00002689A4208D0B2F1804F05D00A4B9A426A
:1010F00002D00A4B9A4204D1496825F08003194373
:10110000916080F83D40002180F83C10084670BD99
:10111000022070BD002C0140000400400008004087
:1011200010B5040003D094F83D0010B107E0012091
:1011300010BD002084F83C00204600F01EF802207C
:1011400084F83D00211D206800F028FF012084F86C
:10115000460084F83E0084F83F0084F8400084F89C
:10116000410084F8420084F8430084F8440084F885
:10117000450084F83D00002010BD704790F83D10F8
:10118000012901D001207047022180F83D1001683B
:10119000CA6842F00102CA6000680B49884208D060
:1011A000B0F1804F05D00949884202D008498842F1
:1011B00004D1816801F00701062903D0016841F0DC
:1011C0000101016000207047002C01400004004034
:1011D0000008004070472DE9F04104460068C668E9
:1011E00005694FF00007A90713D5B10711D5F91EFE
:1011F000016101202077206880698007204602D0A5
:10120000FFF7E8FF04E000F0B1F8204600F060F9D5
:101210002777680716D5700714D521686FF004008A
:101220000861022020772068806910F4407F204602
:1012300002D0FFF7CFFF04E000F098F8204600F05E
:1012400047F92777280715D5300713D521686FF0A0
:1012500008000861042020772068C06980072046C4
:1012600002D0FFF7B7FF04E000F080F8204600F05E
:101270002FF92777E80616D5F00614D521686FF008
:1012800010000861082020772068C06910F4407FB2
:10129000204602D0FFF79EFF04E000F067F82046EA
:1012A00000F016F92777E80708D0F00706D0216884
:1012B0006FF001000861204600F05AF9280608D5B1
:1012C000300606D521686FF0800008612046FFF7E0
:1012D000F1FE680608D5700606D521686FF040005B
:1012E0000861204600F04EF9A8060AD5B00608D5D8
:1012F00021686FF0200008612046BDE8F041FFF74B
:10130000DABEBDE8F081000010B586B00021009182
:101310000191029103910368114902221148B3F12E
:10132000804F13D0104CA3420ED18B6943F00403BD
:101330008B61896901F004010491C021CDE900129B
:1013400069460392FFF760FA06B010BD8B6943F05F
:1013500004038B61896901F0040104910721EDE721
:10136000001002400008014000040040704770B5C2
:10137000044690F83C0000260D4601280FD00120BD
:1013800084F83C006AB1042A1DD0082A2FD00C2A08
:101390003FD00126002084F83C00304670BD02207A
:1013A00070BD206800F044FE2068816941F00801AA
:1013B00081612068816921F004018161206881696F
:1013C0002A69114311E0206800F05AFE2068816903
:1013D00041F4006181612068816921F4806181614B
:1013E000206881692A6941EA02218161D2E7206887
:1013F00000F072FE2068C16941F00801C1612068F7
:10140000C16921F00401C1612068C1692A691143E1
:1014100011E0206800F08CFE2068C16941F4006191
:10142000C1612068C16921F48061C1612068C1691E
:101430002A6941EA0221C161ACE710B5040003D07A
:1014400094F83D0010B107E0012010BD002084F8A1
:101450003C00204600F01EF8022084F83D00211DCB
:10146000206800F09BFD012084F8460084F83E00CF
:1014700084F83F0084F8400084F8410084F842007A
:1014800084F8430084F8440084F8450084F83D0063
:10149000002010BD08B501680B48B1F1804F0BD09A
:1014A0000A4A914207D1C16941F00201C161C06994
:1014B00000F00200009008BDC16941F00101C16166
:1014C000C06900F00100F5E7001002400004004090
:1014D0007047000010B50446022249B104290ED01D
:1014E000082913D094F84100012816D0012010BD1E
:1014F00094F83E000128F9D184F83E200FE094F8DA
:101500003F000128F2D184F83F2008E094F8400021
:101510000128EBD184F8402001E084F84120012229
:10152000206800F077FD0F492068884203D1426CA3
:1015300042F4004242642068884208D0B0F1804FF3
:1015400005D00949884202D00849884204D18168FF
:1015500001F00701062903D0016841F00101016093
:10156000002010BD002C0140000400400008004095
:1015700000680349884201D1FFF746BA704700006E
:10158000000800407047704710B504460068406985
:1015900094F84110C0F3C010212911D180B1206806
:1015A000143050E8001F21F0800140E80012002AAA
:1015B000F5D1A06B08B1FEF7A8FF204600F080FE31
:1015C0002068406994F84210C0F38010222911D19C
:1015D00080B12068143050E8001F21F0400140E83D
:1015E0000012002AF5D1E06B08B1FEF78EFF20460D
:1015F00000F03FFE002010BD70470000F8B5016804
:1016000004460868CA684B6910F00F0F4FF00005D8
:101610005AD003F0010602F49077374365D0C10732
:1016200005D0D10503D5616C41F00101616441072A
:1016300005D5D90703D0616C41F0020161648107CF
:1016400005D5D90703D0616C41F00401616401073D
:1016500007D502F02001314303D0616C41F008014D
:101660006164616C00293BD0800604D5900602D5E8
:10167000204600F033FE20684069616CC0F38010A2
:1016800001F00801014320462BD000F0F2FD206854
:101690004069400621D52068143050E8001F21F031
:1016A000400140E80012002AF5D1E06BA8B16D4975
:1016B0004163E06BFEF74CFF002811D0E06B416BFB
:1016C00001B0BDE8F040084783060ED593060CD55F
:1016D0002046BDE8F84000F001BE2046FFF78CFF31
:1016E000F8BDFFF789FF6564F8BD266B2023012E46
:1016F0007CD1C6067AD5D60678D5086848680090A9
:1017000048694FF00206400640D5E16B0868406822
:101710000004000CE8D0A28D8242E5D9E0858869FA
:1017200020282DD020680C3050E8001F21F4807153
:1017300040E80012002AF5D12168143151E8000F69
:1017400020F0010041E80002002AF5D120681430A1
:1017500050E8001F21F0400140E80012002AF5D1B6
:1017600084F84230256320680C3050E8001F21F0D7
:10177000100140E80012002AF5D1E06BFEF7C5FE2B
:101780006663A08DE18D401A81B22AE0A08DE18DC3
:10179000401A81B2E08D0028A6D00029A4D022688A
:1017A0000C3252E8000F20F4907042E80007002F3E
:1017B000F5D12068143050E8002F22F0010240E8F3
:1017C0000027002FF5D184F84230256320680C30C3
:1017D00050E8002F22F0100240E80023002BF5D142
:1017E00066632046FFF7CFFEF8BDFFE705062BD561
:1017F000150629D594F841002128F5D1A068B0F547
:10180000805F01D12069B0B1206A411C216221684A
:1018100000784860E08C401E0004000CE084E3D1B6
:101820002068C16821F08001C1602068C16841F072
:101830004001C160D8E7206A0088C0F30800486012
:10184000206A801C2062E5E74006CDD55006CBD546
:10185000CA68204622F04002CA6084F8413000F095
:1018600029F9C1E77521000870B5040004D094F887
:101870004100002510B106E0012070BD84F8405001
:10188000204600F023F8242084F841002068C16835
:1018900021F40051C160204600F082FD20680169FA
:1018A00021F4904101612068416921F02A014161E0
:1018B0002068C16841F40051C1606564202084F84B
:1018C000410084F842006563002070BDF0B585B02A
:1018D00000240094019402940394064603683F4850
:1018E0003D4D022103220715AB4251D1836943F4D8
:1018F00080438361836903F480430493836943F0E5
:10190000040383618069364D00F0040004900802EE
:10191000CDE90001039269462846FEF775FFCDE93F
:101920000074694628460294FEF76EFF2E4D2D483E
:101930008027C5E90004C5E902472C616C61AC61F0
:101940002846EC61FEF7FAFE08B1FEF7DCFDF56310
:101950006E62254D23484435143801C5102091C5C9
:10196000214845F8104944306C61AC61EC61FEF7E8
:10197000E5FE08B1FEF7C7FDB5630022052125206D
:101980006E62FFF7D9F82520FFF7C8F805B0F0BD63
:10199000164DAB42FAD1C36943F48023C361C369D6
:1019A00003F480230493836943F00803836180690F
:1019B000CDE9007100F00800CDE903200C4D694627
:1019C0002846FEF721FFE814CDE9000469462846C1
:1019D0000294FEF719FFD9E70038014000100240D9
:1019E0000008014058000240680400200048004000
:1019F000000C014090F84230202B01D002207047AB
:101A000021B11AB10023036300F026BD0120704705
:101A1000704770472DE9F843044690F84100984616
:101A200016460D46202802D00220BDE8F88385B175
:101A30007EB100206064212084F84100FEF7DEFFC3
:101A4000A6848146E684A0682027B0F5805F02D096
:101A500003E00120E9E7206910B12E4600250EE0E1
:101A600000260CE08021204600F03EFDA8B9C6B15A
:101A700016F8010B21684860E08C401EE084E08C81
:101A80004B464FF00002CDF800800028EAD14FF01D
:101A90004001204600F028FD40B184F84170032049
:101AA000C3E735F8020BC0F30800E3E784F84170A0
:101AB0000020BAE77047FEE770B5284D0821284698
:101AC000FEF792FF00B10120254C102160702846DE
:101AD000FEF78AFF00B10120607220212846FEF740
:101AE00083FF00B1012060744FF480712846FEF737
:101AF0007BFF00B101206076002002465FF001010B
:101B000014F8303023B1012B0AD0022B1ED112E081
:101B100004EBC0035D78CDB904F830105A6015E0CD
:101B200004EBC0035B7813B104F830200EE002230D
:101B300004F830300AE004EBC0035D78012D09D0D1
:101B40005D686D1C5D60462D00D9D970401C04286D
:101B5000D6DB70BD04F830209970F7E7000C014027
:101B600038050020FFF7A8FF0A2000F09DFDF9E7E7
:101B70000D4808B5416941F0010141614069002209
:101B800000F00100009005210E20FEF7D5FF0E2089
:101B9000FEF7C4FF002205210F20FEF7CDFFBDE8B0
:101BA00008400F20FEF7BABF0010024010B59CB0ED
:101BB0001C2216496846FEF7B7FB0021684600F074
:101BC0007FFD134C11491C2220601C3107A8FEF731
:101BD000ABFB002107A800F073FD0C4960601C22DC
:101BE00038310EA8FEF7A0FB00210EA800F068FD1A
:101BF0000649A0601C22543115A8FEF795FB002170
:101C000015A800F05DFDE0601CB010BDFC300008C0
:101C1000000000202DE9F04186B0002434480094F3
:101C2000019402940394816941F0200181618169EA
:101C300001F020010491816941F004018161816911
:101C400001F004010491816941F00801816180691A
:101C5000DFF8A08000F0080004900122282140460F
:101C6000FEF7C7FE002210214046FEF7C2FE224FBB
:101C70000022C5213846FEF7BCFE012243F20201D4
:101C80003846FEF7B6FE382001250226CDE90005CC
:101C9000CDE9024669464046FEF7B6FDC720CDE9CC
:101CA0000005CDE9024669463846FEF7ADFD4FF422
:101CB000405000901120CDE90105032003906946B2
:101CC0003846FEF7A1FD4CF23810CDE90004694614
:101CD00038460294FEF798FD4FF41940CDE9000410
:101CE000694640460294FEF78FFD06B0BDE8F081DC
:101CF0000010024000080140000C014010B58AB0FD
:101D0000002407941C2168460894FEF761FB1E48D6
:101D10004FF0804101604721C0E9011440F2E731F2
:101D2000C0E903148461FFF788FB08B1FEF7EBFB01
:101D3000079407A914480894FFF7BEF908B1FEF705
:101D4000E2FB6020CDE900040294002269460E48BF
:101D50000494FFF70CFB08B1FEF7D5FB042269469B
:101D60000948FFF704FB08B1FEF7CDFB08226946DE
:101D70000548FFF7FCFA08B1FEF7C5FB0248FFF77C
:101D8000C3FA0AB010BD0000E402002010B58AB00A
:101D9000002407941C2168460894FEF719FB1B4891
:101DA0001949016040F2CF21C0E9011440F2CF711E
:101DB000C0E903148461FFF740FB08B1FEF7A3FB01
:101DC000079407A911480894FFF776F908B1FEF7C0
:101DD0009AFB6020CDE900040294002269460B487A
:101DE0000494FFF7C4FA08B1FEF78DFB042269469C
:101DF0000648FFF7BCFA08B1FEF785FB0348FFF77A
:101E000083FA0AB010BD0000000400402C0300203B
:101E10000C4810B50A4901604FF416514160002189
:101E200081600C22C160C0E904128161C161FFF7C9
:101E30001BFD002803D0BDE81040FEF764BB10BDB9
:101E400000380140D80300200C4810B50A49016051
:101E50004FF416514160002181600C22C160C0E93D
:101E600004128161C161FFF7FFFC002803D0BDE8C7
:101E70001040FEF748BB10BD004800402004002081
:101E8000FEE7FEE72DE9F041074600248EB08846C4
:101E900026460846FEF7E4F9C5B2FD208DF800009D
:101EA00000208DF80100E81C8DF8020001208DF85B
:101EB000030000EB07108DF804006F46B85D761C38
:101EC0004440052EFAD3002004E000BF18F80010AB
:101ED0004C40401CA842F9D32A464146781DFEF7E3
:101EE000DEF9781964234471AA1D69460248FFF798
:101EF00091FD0EB0BDE8F08120040020012000F02B
:101F0000D3FBFBE710B5502080F31188BFF34F8F50
:101F1000BFF36F8F01F02AF818B104494FF08050D9
:101F20000860002080F3118810BD000004ED00E07F
:101F300030B58FB028216846FEF74AFA14210AA866
:101F4000FEF746FA01210804CDE9001000240294AE
:101F500002250491CDE907504FF4E010099068463E
:101F6000FEF718FF08B172B6FEE70F20CDE90A05AB
:101F70004FF48060CDE90C4002210AA80E94FEF7D0
:101F80000DFE002801D072B6FEE70FB030BD7047DD
:101F90000148FFF720B90000F0040020F0B5026806
:101FA000194B1A4C1A4D4FF08047984205D0B84251
:101FB00003D0A04201D0A84203D122F070064A68A3
:101FC0003243984205D0B84203D0A04201D0A84283
:101FD00003D122F44074CA6822434C6922F0800283
:101FE000224302608A68C2620A688262984201D112
:101FF00009690163012141610169C90703D00169D0
:1020000021F001010161F0BD002C014000040040FD
:102010000008004010B501F01F030121046A994037
:102020008C430462016A9A401143016210BD0000B2
:1020300030B5036A026A22F00102026242688469D2
:1020400024F073050C682C4323F002058B682B43A6
:102050000A4DA8420BD123F00805CB6822F4407248
:102060002B434D6923F0040315438A692A434260D8
:10207000846149684163036230BD0000002C014067
:1020800030B5026A036A23F010030362436884696F
:102090000D6824F4E64444EA05248D6822F0200209
:1020A00042EA05120B4DA8420ED1CD6822F0800203
:1020B00042EA05124D6923F4406343EA85038D69C2
:1020C00022F0400243EA85034360846149688163EA
:1020D000026230BD002C014030B5036A026A22F46E
:1020E000807202624268C46923F4007324F07305AD
:1020F0000C682C438D6843EA05230C4DA8420ED191
:10210000CD6823F4006343EA05234D6922F440526D
:1021100042EA05128D6923F4806342EA05124260A7
:10212000C4614968C163036230BD0000002C0140F6
:1021300030B5046A026A22F4805202624268C369BE
:102140000D6823F4E64343EA05238D6824F4005424
:1021500044EA0534064DA84204D14D6922F4804278
:1021600042EA85124260C36149680164046230BD7D
:10217000002C014010B5406A0021C185C184FFF7E1
:102180003BFA10BD70B5446A2068406994F841106C
:10219000C0F3C0100025212904D118B1E5842046E0
:1021A00000F08EF82068406994F84210C0F3801067
:1021B000222904D118B1E585204600F05AF8606C58
:1021C00040F0100060642046FFF716FA70BD10B5AD
:1021D0000146406A096809684FF0000289062ED45A
:1021E000C28501680C3151E8003F23F4807341E857
:1021F0000034002CF5D10168143151E8003F23F080
:10220000010341E80034002CF5D10168143151E894
:10221000003F23F0400341E80034002CF5D1202199
:1022200080F84210016B012909D101680C3151E895
:10223000003F23F0100341E80034002CF5D1426345
:10224000016B012902D0FFF7E3FB10BD818DFFF781
:102250009AF910BD10B5406A01214163016B012953
:1022600002D0FFF7D6FB10BD818D4908FFF78BF92F
:1022700010BD01680C3151E8002F22F4907241E842
:102280000023002BF5D10168143151E8002F22F012
:10229000010241E80023002BF5D1016B012909D18E
:1022A00001680C3151E8002F22F0100241E80023B0
:1022B000002BF5D1202180F84210002101637047E6
:1022C00001680C3151E8002F22F0C00241E80023E0
:1022D000002BF5D1202180F84110704708B590F807
:1022E0004210222901D0022008BD82684FF4805399
:1022F0009A4201D1016921B1816A9A421BD04AB147
:102300000AE00268816A5268C2F308020A80816AA0
:10231000891C08E0026972B10268526802F07F020B
:102320000A70816A491C8162C18D491E0904090C29
:10233000C18503D01BE002685268F1E70168CA68F2
:1023400022F02002CA600168CA6822F48072CA6062
:1023500001684A6922F001024A61202180F8421096
:1023600000214163026B012A03D0FFF751FB0020DB
:1023700008BD016301680C3151E8002F22F0100202
:1023800041E80023002BF5D101680A68D20602D586
:102390000A6849680091818DFFF7F5F8E7E70000CA
:1023A00070B5044600680169E26821F440511143A8
:1023B00001612169A0680843616908432168CA680E
:1023C00041F20C639A430243CA6020684169A269E2
:1023D00021F44071114341611E492068884202D1B5
:1023E000FEF7A2FC01E0FEF78FFC00EBC00101EB61
:1023F0000012606864218000B2FBF0F3B3FBF1F3DC
:102400006FF018067343B2FBF0F5B2FBF0F605EB84
:102410008305322303EB0515B5FBF1F5B6FBF1F6A9
:1024200005F0F00505EB0615B2FBF0F6B2FBF0F097
:10243000B0FBF1F06FF01802504306EB800003EBA5
:102440000010B0FBF1F0216800F00F002844886014
:1024500070BD00000038014038B5816204468285B5
:10246000002013466064222284F84220E56B1B4A58
:10247000AA62E56B1A4AEA62E56B1A4A2A63E26BC2
:1024800050630A462168E06B091DFEF785F9206854
:10249000016840680090206948B120680C3050E81D
:1024A000001F41F4807140E80012002AF5D1206835
:1024B000143050E8001F41F0010140E80012002AEA
:1024C000F5D12068143050E8001F41F0400140E889
:1024D0000012002AF5D1002038BD0000CF210008ED
:1024E00055220008852100082DE9F8439846174633
:1024F0000D460446089E24E0701C22D0FEF77EFAAA
:10250000A0EB0800B0421AD8CEB12068C1684907D4
:1025100017D5802D15D0402D13D00168C943090768
:102520000FD401680025406800902046FFF7A1FE07
:102530000820606484F840500120BDE8F88303203F
:10254000FBE72068006835EA000004D00020B842AC
:10255000D2D00020F1E70120F9E700000D4808B5CE
:1025600000680168C1F3001179B10168406800900A
:102570000848FFF709F80848006840680749C0F1B3
:1025800064000870064901200870BDE80840014851
:10259000FFF734B8D80300206804002010000020A2
:1025A000110000200B4E0C4D00243078012808D17A
:1025B0000A48FDF793FF2C70347029780848FDF71E
:1025C000E5FE642206490748FFF714FA0A2000F0E6
:1025D0006BF8EAE711000020100000202400002022
:1025E00074030020D8030020FEE7000041F270745D
:1025F00003A10020FFF746FC204600F055F8F7E75E
:102600005B76375D5B6D315D5B74355DBFC9BBD893
:10261000CAD5C0ACBBF8CDB0D2D1C2FAD4D8000074
:102620000907090E002804DB00F1E02080F80014FF
:10263000704700F00F0000F1E02080F8141D704793
:10264000FEF7EAF9FFF774FCFFF7E4FAFFF790FAF8
:10265000FFF7FAFBFFF7DCFBFFF750FBFFF796FBFA
:1026600000210C48FEF736FF04210A48FEF732FF2E
:1026700008210848FEF72EFF00210748FEF72AFF31
:1026800004210548FEF726FFFFF790FA00F013F843
:10269000FEE70000E40200202C0300200146002099
:1026A000842900D0C81C704710B500B9012000F083
:1026B0001FFB002010BD10B500F040FB002010BD36
:1026C0007FB50D4604464169B0F9080081B1A169A2
:1026D00071B1FFF7E3FFD4E905128DE80700D4E9F3
:1026E00000102B46226900F016FC039004B070BD68
:1026F000FFF7D4FF03A9CDE90001208A2B4682B25F
:10270000D4E9001000F0DAFB012801D00020EDE749
:102710000398EBE72DE9F041184C0F460546E668B3
:102720002068001D00F01CFA38B9206890F82C10C1
:1027300001208840216981432161681C07D137B19C
:102740002168BDE8F0410E48091D00F04DBA20682F
:102750003544B5424560216805D2A06BBDE8F04123
:10276000091D00F029BA606B091D00F025FAA06A66
:10277000854200D2A562BDE8F0810000280000205B
:10278000340600202DE9F041054600F039FA2E4CC0
:10279000A068401CA06020682C4F10B1606940B355
:1027A0002DE02560A068012829D1002606EB8600CF
:1027B00007EB800000F0F2F9761C072EF6D32348D1
:1027C0008C3000F0EBF92148A03000F0E7F91F4809
:1027D000B43000F0E3F91D48C83000F0DFF91B48C1
:1027E000DC3000F0DBF919488C3060631430A063F2
:1027F00005E02068E96AC06A884200D82560606AFE
:10280000401C6062E96A012022698840104320610F
:1028100001EB810007EB8000291D00F0E5F900F0D5
:102820000FFA606900280CD02068E96AC06A884203
:1028300007D207494FF080500860BFF34F8FBFF3B6
:102840006F8FBDE8F08100002800002058050020AF
:1028500004ED00E010B5044690F8510058B101288D
:102860000CD002280FD0502080F31188BFF34F8F77
:10287000BFF36F8FFEE7206B00F0F6F92046BDE84E
:10288000104000F0F1B910BD10484FF4406142070C
:1028900006D0C01D0D4920F00700411AC1F5406166
:1028A0000B4A00230144C2E900030839183A21F019
:1028B000070111604B600B600B1AC0E900139360B5
:1028C0004FF0004053605061704700004806002000
:1028D0007C000020144E154CA6F1C8074FF080581C
:1028E000DFF84C9012E000BF00F08AF9F068C5688C
:1028F000281D00F035F9A068401EA0606068401EE9
:10290000606000F09DF92846FFF7A4FF606800288A
:10291000EAD138680128F9D9C9F80080BFF34F8F90
:10292000BFF36F8FF2E70000200600202800002090
:1029300004ED00E02DE9F0479A46DDE9098481467F
:102940006FF00303206B03EB82021044089E20F01B
:102950000707780707D0502080F31188BFF34F8F07
:10296000BFF36F8FFEE7002561B1002023180A5CDA
:1029700083F834200A5C12B1401C1028F6D384F886
:10298000435001E084F83450072E00D30626E66257
:10299000C4E91165201D00F00CF904F1180000F0E5
:1029A00008F92461C6F107006462A061E56484F857
:1029B000505052464946384600F0C0F82060B8F101
:1029C000000F01D0C8F80040BDE8F08730B51149CC
:1029D00000E011460A688242FBD34B685C188442CF
:1029E00003D1406818444860084643681C18944264
:1029F00009D1084C183C2468A24209D052681A44F4
:102A000042600A6812680260814200D0086030BDEE
:102A10000460F9E77C0000200648416B096829B191
:102A2000416BC968C9684968816270474FF0FF31DE
:102A3000FAE700002800002008484068401C4FF0DA
:102A4000500080F3118804D0BFF34F8FBFF36F8F16
:102A5000FEE7BFF34F8FBFF36F8FFEE784000020C8
:102A60002DE9F0410546002700F09EF9324E30680E
:102A700008B9FFF709FF706905424ED1C5B30835A3
:102A800068070ED005F00700C0F10800054468078C
:102A900007D0502080F31188BFF34F8FBFF36F8FA3
:102AA000FEE72DB37068854237D8234818300146B9
:102AB0000C6801E020460C466168A94202D22168F8
:102AC0000029F7D131688C4227D00768216801605E
:102AD00060680837411B10290FD96019420708D0D8
:102AE000502080F31188BFF34F8FBFF36F8FFEE745
:102AF00013E041606560FFF769FF61687068401A24
:102B00007060B268904200D2B060706901430020EA
:102B1000C4E90001F068401CF06000F08DFA78070D
:102B200007D0502080F31188BFF34F8FBFF36F8F12
:102B3000FEE73846BDE8F0816400002010B5031FB1
:102B40004FF080741C601B1F21F001011960191FD8
:102B5000024B0B60143940380A6010BD392A000856
:102B6000D0E9013201699A60D0E901235A604A68CC
:102B7000824201D182684A60002202610868401ED8
:102B80000860086870470000034B036003F15400BD
:102B900008608020106070479000002000F108015C
:102BA0004FF0FF32C0E90112C160016100210160F4
:102BB000704700210161704730B50B685A1C02D084
:102BC00000F1080202E0026904E022465468256828
:102BD0009D42FAD953684B6099608A6051600861E0
:102BE0000168491C016030BD42684A6093688B608F
:102BF00093685960916008610168491C01607047E1
:102C0000502080F31188BFF34F8FBFF36F8F0A49B5
:102C10004868401C486001280CD10848006810F042
:102C2000FF0F07D0502080F31188BFF34F8FBFF301
:102C30006F8FFEE7704700008400002004ED00E085
:102C40000849486828B1401E486001D180F31188C6
:102C50007047502080F31188BFF34F8FBFF36F8F01
:102C6000FEE700008400002070B500282AD0164D31
:102C7000A0F1080460686969084207D1502080F318
:102C80001188BFF34F8FBFF36F8FFEE722683AB111
:102C9000502080F31188BFF34F8FBFF36F8FFEE793
:102CA0008843606000F080F8606869680844686084
:102CB0002046FFF78BFE2869401C2861BDE8704064
:102CC00000F0BAB970BD0000640000204FF0E020B1
:102CD00000210161816105494FF47A720968B1FBF5
:102CE000F2F1491E41610721016170472000002077
:102CF00010B5020014D00F48006B38B1502080F39B
:102D00001188BFF34F8FBFF36F8FFEE700F04CF8D1
:102D100000211046FFF7FEFC00F08EF9002807D1D5
:102D200005494FF080500860BFF34F8FBFF36F8F9E
:102D300010BD00002800002004ED00E010B586B0B2
:102D40000024039405AA04A903A80494FFF71CFF18
:102D5000DDE903010094CDE9011000230EA1104824
:102D6000059A00F0D8F80F490028C86211D0502009
:102D700080F31188BFF34F8FBFF36F8F4FF0FF3099
:102D8000886201204861CC6006B0BDE8104000F0C8
:102D900041B806B010BD000049444C450000000099
:102DA000D5280008280000200248016B491C016357
:102DB00070470000280000201448016B11B1012168
:102DC000C16170470021C1610169B1FA81F1C1F1AE
:102DD0001F0101EB81020E4951F822306BB101EB6A
:102DE000820101F108034A6852684A609A4201D19F
:102DF00052684A60D16801607047502080F31188A2
:102E0000BFF34F8FBFF36F8FFEE700002800002055
:102E1000580500201CB5264908780190FF2008704D
:102E200008788DF800009DF800009DF8002000F063
:102E3000F000904207D0502080F31188BFF34F8FED
:102E4000BFF36F8FFEE79DF800001A4C00F05000B2
:102E500020700720A06005E09DF8002052008DF84A
:102E60000020401E9DF800201206F5D4A060032823
:102E700007D0502080F31188BFF34F8FBFF36F8FBF
:102E8000FEE74FF44070A060019808700A4801689E
:102E900041F470010160016841F070410160FFF789
:102EA00015FF00206060FDF781F900201CBD0000C7
:102EB00000E400E08400002020ED00E02DE9FF5F49
:102EC0008346DDE90E87994616468A469000FFF74D
:102ED000C7FD05001CD05420FFF7C2FD040014D02C
:102EE0000020256384F85100CDE90240CDE9008738
:102EF0004B46324651465846FFF71CFD2046FFF729
:102F000041FC012004B0BDE8F09F2846FFF7ACFE6D
:102F10004FF0FF30F6E7F0B585B0DDE90B640A9DB0
:102F2000A6B1DCB1542700972663022684F85160CD
:102F3000002604AFCDE90246CDE90057FFF7FAFCC1
:102F40002046FFF71FFC049805B0F0BD502080F329
:102F50001188BFF34F8FBFF36F8FFEE7502080F3D0
:102F60001188BFF34F8FBFF36F8FFEE72DE9F0415C
:102F70002F4C0026206B28B1A069401CA061304670
:102F8000BDE8F081E5686D1CE56013D1606B0068F9
:102F900038B1502080F31188BFF34F8FBFF36F8F8C
:102FA000FEE7606BA16B6163A063206A401C206236
:102FB000FFF732FDA06ADFF87C80854209D3606BA1
:102FC0000068A0B1606BC068C7687868854211D29C
:102FD000A0622068C06A00EB800158F82100012837
:102FE00000D90126E0690028C9D00126C7E74FF0C3
:102FF000FF30EDE7381DFFF7B3FDB86A18B107F1F0
:103000001800FFF7ADFDF96A0120226988401043DE
:10301000206101EB810108EB8100391DFFF7E4FD20
:10302000F86A2168C96A8842C9D30126C7E7000047
:1030300028000020580500202DE9F0472C4D0024E1
:103040002746286B38B1FFF7DBFD286B401E28634D
:10305000286B40B146E0502080F31188BFF34F8FBA
:10306000BFF36F8FFEE7A968224E0120D1B3A6F10E
:10307000B40980463068E8B1F068C46804F118000B
:10308000FFF76EFD201DFFF76BFDE06A2A6908FA65
:1030900000F11143296100EB800109EB8100211D42
:1030A000FFF7A2FDE06A2968C96A8842E2D3C5F841
:1030B0001C80DFE70CB1FFF7AFFCAC6944B14646BA
:1030C000FFF754FF00B1EE61641EF9D10020A86142
:1030D000E86938B10849012738070860BFF34F8F06
:1030E000BFF36F8FFFF7ACFD3846BDE8F0870000F7
:1030F000280000200C06002004ED00E0A4310008A8
:10310000FD1E00080000000000000000800000001C
:10311000000000000000000098310008ED250008C4
:10312000000000000000000080000000000000001F
:1031300000000000B0310008A525000800000000D4
:1031400000000000800000000000000000000000FF
:10315000BC310008651B00080000000000000000F2
:1031600080000000000000000000000001020203D7
:103170000405060708090A0B0C0D0E0F10100000BD
:103180000000000000000102030406070809000017
:1031900000000102030400005761726E5461736BFA
:1031A0000000000064656661756C745461736B00A7
:1031B000556172745461736B000000004B65795463
:1031C00061736B00E43100080000002090000000F3
:1031D0002801000874320008900000201818000030
:1031E0004401000800000000000000000000000092
:1031F00000000000000000000100000010000000BE
:103200000000000000127A00000000000000000032
:1032100000000000000000000000000000000000AE
:10322000000000000000000000000000000000009E
:10323000000000000000000000000000000000008E
:10324000000000000000000000000000000000007E
:10325000000000000000000000000000000000006E
:10326000000000000000000000000000AAAAAAAAB6
:04327000000000005A
:04000005080000ED02
:00000001FF
