:020000040800F2
:1000000068180020290200085D240008051C00086B
:10001000DD23000897060008B92F00080000000043
:100020000000000000000000000000009101000836
:100030006908000800000000D5010008B129000887
:10004000430200084302000843020008430200087C
:10005000430200084302000843020008430200086C
:10006000430200084302000843020008430200085C
:100070004302000843020008DD070008E907000802
:10008000430200084302000843020008430200083C
:10009000430200084302000843020008430200082C
:1000A000430200084302000843020008430200081C
:1000B00043020008430200083D2A000843020008EA
:1000C00043020008430200084302000843020008FC
:1000D00043020008430200084302000843020008EC
:1000E00043020008430200084302000800F002F83F
:1000F00000F03FF80AA090E8000C82448344AAF183
:100100000107DA4501D100F034F8AFF2090EBAE880
:100110000F0013F0010F18BFFB1A43F0010318473B
:10012000CC470000EC470000103A24BF78C878C1E3
:10013000FAD8520724BF30C830C144BF04680C60ED
:10014000704700000023002400250026103A28BF35
:1001500078C1FBD8520728BF30C148BF0B60704739
:10016000642900F0C980002070471FB51FBD10B57D
:1001700010BD00F05BFA1146FFF7F7FF02F0C8FF71
:1001800000F079FA03B4FFF7F2FF03BC00F07CFA49
:10019000224B19680868B0E8F00F80F30988BFF3B4
:1001A0006F8F4FF0000080F311884EF00D0E7047F6
:1001B0000000000006480068006880F3088862B606
:1001C00061B6BFF34F8FBFF36F8F00DF00BF00BF7B
:1001D00008ED00E0EFF30980BFF36F8F0F4B1A6853
:1001E00020E9F00F106008B54FF0500080F311883F
:1001F000BFF34F8FBFF36F8F03F04CFB4FF0000046
:1002000080F31188BDE8084019680868B0E8F00F6D
:1002100080F30988BFF36F8F704700BF4000002054
:10022000EFF3058070470000094880470948004700
:10023000FEE7FEE7FEE7FEE7FEE7FEE7FEE7FEE796
:10024000FEE7FEE704480549054A064B70470000F3
:100250003B2A0008ED000008681200206818002002
:1002600068140020681400200FB41CB5074B06AAC0
:100270007B4469460090059800F0BBF90020694670
:1002800000F0CAF91CBC5DF814FB0000A5030000D7
:100290002DE9F0410E460446002020622046E16828
:1002A000884730B3252805D0D4E901219047206A3A
:1002B000401CF2E7E168204600278847050018D077
:1002C000A5F14100192802D820354FF400673246C5
:1002D000294620462760FFF743FF40B1012804D09C
:1002E000F61D26F007060836D8E7361DD6E728465D
:1002F000DAE7206ABDE8F0812DE9F04106460024E6
:1003000010687529314616A510D0AFF3008000287B
:1003100002DA404213A507E031688A0701D512A529
:1003200002E0490704D511A5012401E0AFF30080E4
:1003300000210A2206F1240709E0B0FBF2FCB0FB21
:10034000F2F302FB1C00303078541846491C002898
:10035000F3D123462A463046BDE8F04100F0EAB822
:10036000000000002D0000002B0000002000000015
:1003700010B5431C02E010F8011B71B18107FAD1DE
:100380004FF0013202C88C1A8C4314EAC211F9D022
:10039000C01A0A0603D0C01E10BDC01A10BD0A0440
:1003A00001D0801E10BD0902FCD0401E10BD032AE2
:1003B00040F2308010F0030C00F0158011F8013B82
:1003C000BCF1020F624498BF11F801CB00F8013B69
:1003D00038BF11F8013BA2F1040298BF00F801CB2D
:1003E00038BF00F8013B11F0030300F02580083A04
:1003F000C0F0088051F8043B083A51F804CBA0E85B
:100400000810F5E7121D5CBF51F8043B40F8043BAF
:10041000AFF30080D20724BF11F8013B11F801CBE4
:1004200048BF11F8012B24BF00F8013B00F801CBB5
:1004300048BF00F8012B704710B5203AC0F00B8080
:10044000B1E81850203AA0E81850B1E81850A0E8D8
:100450001850BFF4F5AF5FEA027C24BFB1E8185032
:10046000A0E8185044BF18C918C0BDE810405FEAA2
:10047000827C24BF51F8043B40F8043B08BF70471E
:10048000D20728BF31F8023B48BF11F8012B28BF23
:1004900020F8023B48BF00F8012B70474FF00002E4
:1004A0000429C0F0128010F0030C00F01B80CCF186
:1004B000040CBCF1020F18BF00F8012BA8BF20F8F4
:1004C000022BA1EB0C0100F00DB85FEAC17C24BF48
:1004D00000F8012B00F8012B48BF00F8012B7047F2
:1004E0004FF0000200B5134694469646203922BFCD
:1004F000A0E80C50A0E80C50B1F12001BFF4F7AF18
:10050000090728BFA0E80C5048BF0CC05DF804EBF9
:10051000890028BF40F8042B08BF704748BF20F867
:10052000022B11F0804F18BF00F8012B7047704765
:10053000704770472DE9F0470D46994692460446AC
:1005400000F124080168880604D5E06921F0100153
:10055000216000E00120A84201DD471B00E00027E8
:10056000A1697A1902EB0900081AA0612078C00677
:1005700002D42046AFF30080002608E0D4E9012130
:100580001AF806009047206A401C761C20624E45EF
:10059000F4DB2078C0060AD52046AFF3008006E0E1
:1005A000D4E9012130209047206A401C2062381E87
:1005B000A7F10107F4DC07E0D4E9012118F80500F0
:1005C0009047206A401C2062281EA5F10105F3DC3B
:1005D0002046AFF300802078000602D50220BDE857
:1005E000F0870120FBE7000001694A1C02610878DE
:1005F000704700B58FB0CDE9013100210591054963
:100600007944CDE9031011466846FFF741FE0FB06B
:1006100000BD0000E5FFFFFF0A6802F8010B0A6059
:100620007047000000487047081200207546FFF729
:10063000F9FFAE4605006946534620F0070085469F
:1006400018B020B5FFF7FEFDBDE820404FF00006D2
:100650004FF000074FF000084FF0000B21F00701AA
:10066000AC46ACE8C009ACE8C009ACE8C009ACE8ED
:10067000C0098D46704710B50446AFF30080204690
:10068000BDE81040FFF77EBD01491820ABBEFEE774
:10069000260002007047FEE72DE9F05F4E4A002475
:1006A0000227DFF82481494E494DDFF828B151680F
:1006B0004FF008094FF0090A012808D0022828D075
:1006C00003285BD0042822D101294CD009E001295C
:1006D00007D101220021104602F03AF9012200213F
:1006E00048E03D484068642804D101225A21022094
:1006F00002F02EF938484068C82803D101225A2157
:1007000010465EE034484168B1F5967F1AD0BDE8E6
:10071000F09F012909D101225A21104602F018F94F
:1007200001220021022002F013F92B4840686428BE
:1007300004D101225A21022002F00AF92648416818
:10074000C829E4D188F800407472F472446085F8D6
:1007500000906F7085F802A09BF80010BDE8F05F74
:100760001B4800F05DB80122B421104602F0F0F8F9
:100770000122B421022002F0EBF8B2E701290BD1EB
:1007800001224FF48771104602F0E2F801224FF483
:100790008771022002F0DCF80F484068642804D119
:1007A0000122B421022002F0D3F80B484068C82887
:1007B000A8D101225A21022002F0CAF801225A21AE
:1007C000022002F0C5F89DE728000020EC0400207C
:1007D000150000201100002034000020014800F026
:1007E000D1B8000060040020014800F0CBB8000040
:1007F0001C04002030B590F840500124AC40C56B7B
:100800006C60046863604368102B036803D09960D0
:100810000068C26030BD9A600068C16030BD0000F1
:100820000A4610B50146054801F0AEF9002803D08C
:10083000BDE8104000F0A4B810BD00008C030020FB
:100840000022084902E0521CD2B2491C0B78082B46
:1008500002D0042AF7D970478A78092AFBD149784F
:1008600001707047120000207047000010B5204C46
:1008700088B020A122886846FFF7F6FC00211E23DD
:100880006A46084601F0FCFE62881EA16846FFF732
:10089000EBFC1E236A460021012001F0F1FEA28834
:1008A0001CA16846FFF7E0FC1E236A4600210220D7
:1008B00001F0E6FE1B484078012806D0022806D049
:1008C000032810D0042806D10FE017A100E01CA1D6
:1008D0006846FFF7C9FC1E236A460021032001F089
:1008E000CFFE08B010BD1BA1F2E720A1F0E7000089
:1008F0002A0000204D4F544F52315F53504545441C
:100900003A2564004D4F544F52325F535045454491
:100910003A2564004D4F544F52335F535045454480
:100920003A256400340000204E4F54415247455F41
:10093000434153543A52454359434C45000000004B
:100940004E4F54415247455F434153543A4F5448E8
:10095000455200004E4F54415247455F4341535466
:100960003A4B49544348454E000000004E4F544115
:100970005247455F434153543A4B4841524D000062
:1009800072B6FEE72DE9F05FC16B0C6801680B6879
:10099000D0F840C0042202FA0CF2494DDFF824A13D
:1009A000494E4A4FDFF828B1DFF828E122422CD027
:1009B0005A072AD50A68920603D40A6822F004026C
:1009C0000A600168A94201D1042219E0514501D110
:1009D000402215E0B14202D14FF4806210E0B942EA
:1009E00002D14FF480420BE0594502D14FF48022EE
:1009F00006E0714502D14FF4800201E04FF08062C1
:100A00002F4908394A60C16A3BE04FF0020808FAF2
:100A10000CF818EA040F4FF000094FF0010235D02E
:100A20005FEA837832D50B689B0605D40B6823F008
:100A30000A030B6080F821200168A94201D102223B
:100A400019E0514501D1202215E0B14202D14FF405
:100A5000007210E0B94202D14FF400520BE0594548
:100A600002D14FF4003206E0714502D14FF400127A
:100A700001E04FF00072124908394A6080F8209076
:100A8000816A00291AD0BDE8F05F0847082505FAF9
:100A90000CF5254212D01B0710D50B6823F00E036E
:100AA0000B6090F84010C36B02FA01F15960826349
:100AB00080F8212080F82090016BE2E7BDE8F09FEC
:100AC000080002401C000240300002404400024086
:100AD000580002406C00024030B528B308C81349E2
:100AE00014221944B1FBF2F18900C16310498163FA
:100AF000022141771A6843F6F0718A43D0E9001465
:100B00002143D0E902452C43214304692143446930
:100B1000214384692143114319600021416301226B
:100B200042770177084630BD012030BDF8FFFDBF98
:100B30000000024070B5044690F82000002501280E
:100B40000CD0012084F8200094F821600020012EB0
:100B500006D084F820000225284670BD022070BD12
:100B6000022684F82160A0632068066826F001064A
:100B700006602046FFF73EFEE06A00282068016814
:100B800002D041F00E0106E021F00401016020686E
:100B9000016841F00A0101602068016841F001012B
:100BA0000160D9E770B5044600F008F90546601CFD
:100BB00002D004480078044400F000F9401BA04231
:100BC000FAD370BD180000202DE9F84FDFF8B89176
:100BD0000024A9F1040B23460F2709F1040AABF105
:100BE000040EC9E00125A5402A40AA427DD1674EE6
:100BF000D1F804C0ACEB0608B44532D014DCBCF12B
:100C0000030F3AD009DCBCF1000F2AD0BCF1010F70
:100C10001CD0BCF1020F31D11DE0BCF1110F17D077
:100C2000BCF1120F2AD119E0B8F5881F19D006DCE3
:100C3000B8F5803F15D0B8F5801F1FD111E0B8F589
:100C4000001F0ED0B8F5041F18D10AE0CB6815E0DC
:100C5000CB681B1D12E0CB6808330FE0CB680C3368
:100C60000CE08B682BB1012B4FF0080303D04561DA
:100C700004E0042302E0056100E00023FF2A01D81C
:100C8000064601E000F104064FEA840501D9A5F10A
:100C90002005D6F8008007FA05FC28EA0C0803FABC
:100CA00005F548EA0508C6F800804D68ED0062D5F4
:100CB000374DAE6946F00106AE61AD6924F003061A
:100CC00005F001050095334D06EB050CDCF80850E6
:100CD000A607360F07FA06F825EA0805DFF8B880F8
:100CE000404503D14FF0000817E044E0DFF8AC8046
:100CF000404502D14FF001080FE0DFF8A4804045E5
:100D000002D14FF0020808E0DFF89880404502D198
:100D10004FF0030801E04FF0040808FA06F848EA2B
:100D20000508CCF808804D68D9F80060ED024D4602
:100D300001D5164300E096432E604D68DAF8006056
:100D4000AD02554601D5164300E096432E604D682E
:100D5000DBF80060AD035D4601D5164300E0964325
:100D60002E604D68DEF80060ED03754601D5164330
:100D700000E096432E60641C0D682A46E5407FF42F
:100D800031AFBDE8F88F00000804014000001110E9
:100D9000001002400000014000080140000C01402A
:100DA00000100140001401408068084000D001207C
:100DB00070470AB1016170470904FBE70148806888
:100DC0007047000018000020024881680278114432
:100DD0008160704718000020074810B5016841F095
:100DE00010010160032000F0A7F80F2000F006F8C2
:100DF00000F050F8002010BD0020024030B505463C
:100E00001F4887B0C16941F00401C161C06906A9EA
:100E100000F00400009001A800F036F90498B0B189
:100E200000F052F940001749174AB0FBF1F117489A
:100E3000491E0260416040F2E7320021C0E903210F
:100E40008160816100F04CFB040003D015E000F0EC
:100E50003BF9E8E70D4800F071FB04000DD11E20BE
:100E600000F03CF8102D07D2002229461E2000F089
:100E700043F80748056000E0012407B0204630BD74
:100E80000010024040420F0000080040A40400206F
:100E90001C0000200F4808B5816941F00101816103
:100EA000816901F001010091C16941F08051C16186
:100EB000C069002200F0805000900F21901E00F0C9
:100EC0001BF80548416821F0E06141F00071416084
:100ED00008BD00000010024000000140002809DBAE
:100EE00000F01F02012191404009800000F1E02044
:100EF000C0F8001170470000F0B40E4B1B680C46A0
:100F0000C3F30223C3F10705042D00D90425191DDD
:100F1000072901D2002300E0DB1E012606FA05F1B5
:100F2000491E214099409E40761E16403143F0BC38
:100F300002F0A0B80CED00E0064900F007020868D6
:100F40004FF6FF03184040EA0220034A10430860AE
:100F5000704700000CED00E00000FA052DE9F047B5
:100F60000F46050061D0434E306800F00700B842DC
:100F700009D2306820F0070038433060306800F054
:100F80000700B84251D128683B4C810712D5400771
:100F900003D5606840F4E06060602878000703D5FE
:100FA000606840F4605060606068A96820F0F000FC
:100FB000084360602878C00728D06868012810D0EE
:100FC0002168022810D0890700292EDA616821F0F3
:100FD000030101436160FFF7F1FE804641F2883969
:100FE0000DE021688903EFE78901EDE7FFF7E6FEF1
:100FF000A0EB0801494502D90320BDE8F0876068ED
:10100000696800F00C00B0EB810FEFD1306800F0A0
:101010000700B8420BD9306820F007003843306031
:10102000306800F00700B84201D00120E5E72878D9
:10103000400705D56068E96820F4E0600843606017
:101040002878000706D56068296920F4605040EAD6
:10105000C100606000F058F86168084AC1F30311EC
:10106000515CC8400649086006480068FFF7C6FEA4
:101070000020C2E700200240001002408A40000821
:10108000240000201C0000200F2202600C4A53683C
:1010900003F003034360536803F0F0038360536875
:1010A00003F4E063C36052684FF4E06303EAD202E2
:1010B00002610448006800F0070008607047000003
:1010C00000100240002002400448054900684968B9
:1010D000044AC1F30221515CC8407047240000203B
:1010E000001002409A400008044805490068496819
:1010F000044AC1F3C221515CC8407047240000205B
:10110000001002409A4000080E4A51680E4801F053
:101110000C03042B11D0082B0FD10C48C1F38343CF
:10112000C903C05C0AD55168084AC1F34041921E08
:10113000515C054A5043B0FBF1F070470449484305
:10114000704700000010024000127A007A40000848
:1011500000093D002DE9F84F040070D02078C04D03
:10116000C00749D06868C0F38100012807D06868CB
:10117000C0F38100022809D16868C00306D5286839
:10118000800339D560680028E7D035E06068B0F5A5
:10119000803F0BD010B1B0F5A02F11D0286820F4FB
:1011A00080302860286820F4802002E0286840F41D
:1011B00080302860606890B1FFF700FE06460AE0C4
:1011C000286840F480202860F0E700BFFFF7F6FDB4
:1011D000801B642873D828688003F7D50CE0FFF7DC
:1011E000EDFD064605E000BFFFF7E8FD801B642823
:1011F000F0D828688003F7D420789A4E80074FF003
:1012000001094FF0000839D5686810F00C0F07D0BD
:101210006868C0F38100022809D16868C00306D459
:101220002868800714D52069012808D110E02069BA
:10123000B0B1C6F80090FFF7C1FD074605E00AE12E
:10124000FFF7BCFDC01B0228C4D828688007F7D56B
:101250002868616920F0F80040EAC10028600DE0CC
:10126000C6F80080FFF7AAFD074604E0FFF7A6FDD9
:10127000C01B022823D828688007F7D420780007ED
:101280002CD57948A169D9B1C0F80090FFF796FD37
:10129000074604E0FFF792FDC01B02280FD8686ADA
:1012A0008007F7D571484FF4FA510068B0FBF1F0B0
:1012B000009000BF0098411E0091FAD20EE080E03D
:1012C000C0F80080FFF77AFD074604E0FFF776FDDF
:1012D000C01B022875D8686A8007F7D420784007B9
:1012E00060D5E8690027C00008D4E86940F0805064
:1012F000E861E869012700F0805000905C480168CF
:10130000C90513D40168834641F480710160FFF779
:1013100055FD824606E000BFFFF750FDA0EB0A0036
:1013200064284ED8DBF80000C005F5D5E068012838
:101330000AD008B1052813D0286A20F001002862DD
:10134000286A20F0040002E0286A40F001002862C8
:10135000E06841F2883B98B1FFF730FD82460BE030
:10136000286A40F004002862EEE700BFFFF726FD80
:10137000A0EB0A0159455AD8286A8007F6D50CE037
:10138000FFF71CFD824605E0FFF718FDA0EB0A0100
:1013900059454CD8286A8007F6D41FB1E86920F077
:1013A0008050E861E06988B36968C1F3810102296E
:1013B00044D00228C6F8608004D0FFF7FFFC044642
:1013C00038E034E0FFF7FAFC074604E0FFF7F6FCEC
:1013D000C01B02282BD828688001F7D4206AB0F5FA
:1013E000803F05D16868A16820F400300843686038
:1013F000D4E908010843696821F47411084368605E
:10140000C6F86090FFF7DAFC044606E025E000BF6E
:10141000FFF7D4FC001B022809D828688001F7D503
:101420001BE000BFFFF7CAFC001B022802D9032003
:10143000BDE8F88F28688001F4D40EE00128F7D0C9
:101440006868226A00F48031914204D1616A00F434
:101450007010884201D00120EAE70020E8E7000090
:10146000001002400000424280044242240000205A
:10147000007000407047704770B590F83C20012A1A
:1014800026D0012480F83C40022280F83D200368E9
:101490005A689D6822F070060A6832435A600D4B04
:1014A00002689A4208D0B2F1804F05D00A4B9A42A6
:1014B00002D00A4B9A4204D1496825F080031943AF
:1014C000916080F83D40002180F83C10084670BDD6
:1014D000022070BD002C01400004004000080040C4
:1014E00010B5040003D094F83D0010B107E00120CE
:1014F00010BD002084F83C00204600F01EF80220B9
:1015000084F83D00211D206801F09EFA012084F836
:10151000460084F83E0084F83F0084F8400084F8D8
:10152000410084F8420084F8430084F8440084F8C1
:10153000450084F83D00002010BD704790F83D1034
:10154000012901D001207047022180F83D10016877
:10155000CA6842F00102CA6000680B49884208D09C
:10156000B0F1804F05D00949884202D0084988422D
:1015700004D1816801F00701062903D0016841F018
:101580000101016000207047002C01400004004070
:101590000008004070472DE9F04104460068C66825
:1015A00005694FF00007A90713D5B10711D5F91E3A
:1015B000016101202077206880698007204602D0E1
:1015C000FFF7E8FF04E000F0B1F8204600F060F912
:1015D0002777680716D5700714D521686FF00400C7
:1015E0000861022020772068806910F4407F20463F
:1015F00002D0FFF7CFFF04E000F098F8204600F09B
:1016000047F92777280715D5300713D521686FF0DC
:1016100008000861042020772068C0698007204600
:1016200002D0FFF7B7FF04E000F080F8204600F09A
:101630002FF92777E80616D5F00614D521686FF044
:1016400010000861082020772068C06910F4407FEE
:10165000204602D0FFF79EFF04E000F067F8204626
:1016600000F016F92777E80708D0F00706D02168C0
:101670006FF001000861204600F05AF9280608D5ED
:10168000300606D521686FF0800008612046FFF71C
:10169000F1FE680608D5700606D521686FF0400097
:1016A0000861204600F04EF9A8060AD5B00608D514
:1016B00021686FF0200008612046BDE8F041FFF787
:1016C000DABEBDE8F081000010B586B000210091BF
:1016D0000191029103910368114902221148B3F16B
:1016E000804F13D0104CA3420ED18B6943F00403FA
:1016F0008B61896901F004010491C021CDE90012D8
:1017000069460392FFF760FA06B010BD8B6943F09B
:1017100004038B61896901F0040104910721EDE75D
:10172000001002400008014000040040704770B5FE
:10173000044690F83C0000260D4601280FD00120F9
:1017400084F83C006AB1042A1DD0082A2FD00C2A44
:101750003FD00126002084F83C00304670BD0220B6
:1017600070BD206801F0BAF92068816941F0080174
:1017700081612068816921F00401816120688169AB
:101780002A69114311E0206801F0D0F920688169CD
:1017900041F4006181612068816921F48061816187
:1017A000206881692A6941EA02218161D2E72068C3
:1017B00001F0E8F92068C16941F00801C1612068C1
:1017C000C16921F00401C1612068C1692A6911431E
:1017D00011E0206801F002FA2068C16941F400615B
:1017E000C1612068C16921F48061C1612068C1695B
:1017F0002A6941EA0221C161ACE710B5040003D0B7
:1018000094F83D0010B107E0012010BD002084F8DD
:101810003C00204600F01EF8022084F83D00211D07
:10182000206801F011F9012084F8460084F83E0098
:1018300084F83F0084F8400084F8410084F84200B6
:1018400084F8430084F8440084F8450084F83D009F
:10185000002010BD08B501680B48B1F1804F0BD0D6
:101860000A4A914207D1C16941F00201C161C069D0
:1018700000F00200009008BDC16941F00101C161A2
:10188000C06900F00100F5E70010024000040040CC
:101890007047000010B50446022249B104290ED059
:1018A000082913D094F84100012816D0012010BD5A
:1018B00094F83E000128F9D184F83E200FE094F816
:1018C0003F000128F2D184F83F2008E094F840005E
:1018D0000128EBD184F8402001E084F84120012266
:1018E000206801F0EDF80F492068884203D1426C6E
:1018F00042F4004242642068884208D0B0F1804F30
:1019000005D00949884202D00849884204D181683B
:1019100001F00701062903D0016841F001010160CF
:10192000002010BD002C01400004004000080040D1
:1019300000680349884201D1FFF746BA70470000AA
:101940000008004070477047704770B5040004D02D
:1019500094F84100002510B106E0012070BD84F824
:101960004050204600F024F8242084F841002068EC
:10197000C16821F40051C160204601F023FA2068BB
:10198000016921F4904101612068416921F02A0137
:1019900041612068C16841F40051C1606564202044
:1019A00084F8410084F842006563002070BD0000A7
:1019B000F0B585B000240094019402940394064687
:1019C00003683B48394D022103220715AB4249D138
:1019D000836943F480438361836903F48043049300
:1019E000836943F0040383618069324D00F0040091
:1019F00004900802CDE90001039269462846FFF7EA
:101A0000E3F8CDE90074694628460294FFF7DCF854
:101A10002A4D29488027C5E90004C5E902472C6101
:101A20006C61AC612846EC61FFF756F808B1FEF72F
:101A3000A7FFF5636E62214D1F484435143801C578
:101A4000102091C51D4845F8104944306C61AC61C7
:101A5000EC61FFF741F808B1FEF792FFB5636E62E3
:101A600005B0F0BD164DAB42FAD1C36943F48023F3
:101A7000C361C36903F480230493836943F00803BB
:101A800083618069CDE9007100F00800CDE9032091
:101A90000C4D69462846FFF797F8E814CDE9000495
:101AA000694628460294FFF78FF8D9E700380140CD
:101AB0000010024000080140580002401C040020B1
:101AC00000480040000C014090F84230202B01D02B
:101AD0000220704721B11AB10023036301F0CEB98F
:101AE00001207047704770472DE9F843044690F88D
:101AF0004100984616460D46202802D00220BDE837
:101B0000F88385B17EB100206064212084F8410013
:101B1000FFF754F9A6848146E684A0682027B0F533
:101B2000805F02D003E00120E9E7206910B12E4672
:101B300000250EE000260CE08021204601F0E6F9A9
:101B4000A8B9C6B116F8010B21684860E08C401EA8
:101B5000E084E08C4B464FF00002CDF80080002876
:101B6000EAD14FF04001204601F0D0F940B184F8AD
:101B700041700320C3E735F8020BC0F30800E3E728
:101B800084F841700020BAE770B5044690F841002F
:101B9000202801D0022070BD49B342B32162A28443
:101BA000E28400206064212384F84130A56B114B4E
:101BB000AB62A56B104BEB62A56B104B2B63A36B59
:101BC0005863256813462A1DA06BFEF7B3FF2168F2
:101BD0006FF0400008602068143050E8001F41F0AA
:101BE000800140E80012002AF5D1002070BD0120DC
:101BF00070BD00000F2D0008512D0008212C000899
:101C000070477047FEE770B50824002500F072FDAC
:101C100013E06806050E002000F054FD142001F0CA
:101C200039FA142001F036FA012000F04BFD14209F
:101C300001F030FA00F052FD0543641EE4B2E8D230
:101C4000002000F03FFD142001F024FA00F06EFDAA
:101C5000284670BD70B50446082516E000F032FD38
:101C6000142001F017FA04F0800000F053FD142056
:101C700001F010FA6006040E142001F00BFA0120A6
:101C800000F020FD142001F005FA6D1EEDB24FF0BA
:101C90000000E3D200F016FDBDE87040142001F012
:101CA000F9B910B5012000F035FD142001F0F2F96A
:101CB000142001F0EFF9012000F004FD142001F0E0
:101CC000E9F9002000F0FEFCBDE81040142001F00E
:101CD000E1B910B5012000F01DFD142001F0DAF982
:101CE000012000F0EFFC142001F0D4F9002000F0F6
:101CF00011FD142001F0CEF9002000F0E3FCBDE856
:101D00001040142001F0C6B910B5002000F0DAFC34
:101D1000142001F0BFF9002000F0FCFC142001F0B9
:101D2000B9F9012000F0CEFC142001F0B3F9012034
:101D300000F0F0FCBDE81040142001F0ABB910B584
:101D4000052400F0D7FC142001F0A4F9012000F0D4
:101D5000B9FC142001F09EF905E0641EA4B2142021
:101D600001F098F964B100F0B9FC0028F5D100F059
:101D7000A9FC00F0DBFC142001F08CF9002010BD60
:101D800000F0D4FCFFF7C0FF012010BD70B50122A8
:101D90000B4D140321462846FFF70BF8012256038A
:101DA00031462846FFF705F8002231462846FFF75E
:101DB00000F821462846BDE870400022FEF7F9BF32
:101DC000000C014070B5094C012211032046FEF7BA
:101DD000F0FF6514002229462046FEF7EAFF294657
:101DE0002046BDE870400122FEF7E3BF000C014031
:101DF00070B50122064D140321462846FEF7D9FF8F
:101E000021462846BDE870400022FEF7D2BF000000
:101E1000000C014070B5224900204872C872214967
:101E20000870012001F03CF91F494870032001F0BF
:101E300037F90446022001F033F904EB00201B4C73
:101E40002080052001F02CF90546042001F028F936
:101E500005EB00206080072001F022F905460620EE
:101E600001F01EF905EB0020A0802188012200204E
:101E700000F0B6FA01226188104600F0B1FAA1889C
:101E80000122022000F0ACFA00225A21012000F0C9
:101E90005FFDBDE8704001225A21022000F058BDCC
:101EA000EC04002028000020340000202A0000203C
:101EB00070B5284D08212846FEF776FF00B10120B5
:101EC000254C102160702846FEF76EFF00B10120FE
:101ED000607220212846FEF767FF00B10120607480
:101EE0004FF480712846FEF75FFF00B10120607655
:101EF000002002465FF0010114F8303023B1012BBD
:101F00000AD0022B1ED112E004EBC0035D78CDB9DC
:101F100004F830105A6015E004EBC0035B7813B18D
:101F200004F830200EE0022304F830300AE004EB1D
:101F3000C0035D78012D09D05D686D1C5D60462D84
:101F400000D9D970401C0428D6DB70BD04F83020BD
:101F50009970F7E7000C0140F80400202DE9FC5FC0
:101F60003F4D404E0027E87C3F4C01282BD1208874
:101F7000010AC0B2CDE90001608871784FEA102BE8
:101F800000F0FF0AA0884FEA102900F0FF080120A6
:101F900001F0A6F80220019901F0A2F803200099AF
:101FA00001F09EF85946042001F09AF851460520A8
:101FB00001F096F84946062001F092F841460720C4
:101FC00001F08EF8EF74A87E012808D17078401CCB
:101FD000C0B27070042801D901207070AF76A87C5F
:101FE000012807D13078401CC0B23070022800D9D7
:101FF0003770AF7431784FF47A7069B1012920D00D
:1020000002291CD1A978012919D1A188643189B28A
:10201000A180814221D81EE0A978012907D1218819
:10202000643189B22180814200D92080AF70A87AC2
:10203000012804D1208808B164382080AF72BDE83F
:10204000FC9FA9780129FAD16188643189B2618045
:10205000814200D96080AF70F1E7A080FBE700000B
:10206000F8040020340000202A000020FFF720FFA1
:10207000FFF774FFFEF7FAFB00F08CF90A2001F07D
:1020800081F8F3E70D4808B5416941F0010141616C
:102090004069002200F00100009005210E20FEF7AB
:1020A0002BFF0E20FEF71AFF002205210F20FEF75E
:1020B00023FFBDE808400F20FEF710BF00100240CC
:1020C00010B59CB01C2216496846FEF7B5F90021F0
:1020D000684601F063F8134C11491C2220601C3142
:1020E00007A8FEF7A9F9002107A801F057F80C4945
:1020F00060601C2238310EA8FEF79EF900210EA860
:1021000001F04CF80649A0601C22543115A8FEF7D6
:1021100093F9002115A801F041F8E0601CB010BD52
:1021200008400008000000202DE9F04186B000249E
:1021300034480094019402940394816941F0200191
:102140008161816901F020010491816941F00401FC
:102150008161816901F004010491816941F0080104
:1021600081618069DFF8A08000F0080004900122FE
:1021700028214046FEF71DFE002210214046FEF7B2
:1021800018FE224F0022C5213846FEF712FE01221A
:1021900043F202013846FEF70CFE382001250226E4
:1021A000CDE90005CDE9024669464046FEF70CFD43
:1021B000C720CDE90005CDE9024669463846FEF75D
:1021C00003FD4FF44050CDE900050320CDE9024066
:1021D00069463846FEF7F8FC4CF23810CDE90004A9
:1021E000694638460294FEF7EFFC4FF41940CDE9FA
:1021F0000004694640460294FEF7E6FC06B0BDE8DE
:10220000F08100000010024000080140000C014075
:1022100010B58AB0002407941C2168460894FEF784
:102220005FF91E484FF0804101604721C0E9011469
:1022300040F2E731C0E903148461FFF7DEFA08B128
:10224000FEF79EFB079407A914480894FFF714F9BA
:1022500008B1FEF795FB6020CDE90004029400224E
:1022600069460E480494FFF762FA08B1FEF788FB4E
:10227000042269460948FFF75AFA08B1FEF780FBC5
:10228000082269460548FFF752FA08B1FEF778FBC5
:102290000248FFF719FA0AB010BD0000FC02002046
:1022A00010B58AB0002407941C2168460894FEF7F4
:1022B00017F91B481949016040F2CF21C0E9011408
:1022C00040F2CF71C0E903148461FFF796FA08B1B8
:1022D000FEF756FB079407A911480894FFF7CCF8BE
:1022E00008B1FEF74DFB6020CDE900040294002206
:1022F00069460B480494FFF71AFA08B1FEF740FB51
:10230000042269460648FFF712FA08B1FEF738FBC7
:102310000348FFF7D9F90AB010BD000000040040DF
:10232000440300200C4810B50A4901604FF41651CF
:102330004160002181600C22C160C0E9041281610A
:10234000C161FFF702FB002803D0BDE81040FEF793
:1023500017BB10BD003801408C0300200C4810B59D
:102360000A4901604FF416514160002181600C223E
:10237000C160C0E904128161C161FFF7E6FA00287B
:1023800003D0BDE81040FEF7FBBA10BD0048004086
:10239000D403002070B50E4D0E4C287820B1616832
:1023A000491C6160FEF778F90B48C07A03280DD10B
:1023B000287800280AD1A068401CA060B0F5FA7FF8
:1023C00004D16078BDE87040FEF766B970BD0000CA
:1023D0002800002034000020EC040020FEE700006C
:1023E00070B50C4601001A481A4D03D0012914D0CB
:1023F000022921D1002A4FF001024FF0080105D037
:102400000646FEF7D6FC0022102110E00446FEF737
:10241000D0FC01221021204616E00F4E002A4FF07A
:1024200001020AD02021FEF7C4FC0022012130461F
:10243000FEF7BFFC2868446370BD02213046FEF7FA
:10244000B8FC012204213046BDE87040FEF7B1BC63
:1024500000080140FC020020000C0140FEE770B5BE
:102460000024002104F1B00000F025F90021022031
:1024700000F021F90021102000F01DF900250121B4
:10248000002000F018F96D1CEDB2802DF7D3641C0C
:10249000E4B2082CE5D370BD30B585B000200090C3
:1024A0000190029003904648816941F008018161E2
:1024B0008069444D00F008004FF44064049000220D
:1024C00021462846FEF775FC01210220CDE90210C5
:1024D000CDE9004169462846FEF776FB0A20FEF763
:1024E00061FB0021AE2000F0E6F80021022000F0A0
:1024F000E2F80021102000F0DEF80021402000F07A
:10250000DAF80021B02000F0D6F80021812000F098
:10251000D2F80021FF2000F0CEF80021A12000F029
:10252000CAF80021A62000F0C6F80021A82000F07B
:10253000C2F800213F2000F0BEF80021C82000F0C2
:10254000BAF80021D32000F0B6F80021084600F0C8
:10255000B2F80021D52000F0AEF80021802000F074
:10256000AAF80021D82000F0A6F80021052000F0EC
:10257000A2F80021D92000F09EF80021F12000F0FF
:102580009AF80021DA2000F096F80021122000F0DD
:1025900092F80021DB2000F08EF80021302000F0BE
:1025A0008AF800218D2000F086F80021142000F028
:1025B00082F80021AF2000F07EF805B030BD0000A9
:1025C00000100240000C014010B50A4604460021EC
:1025D00002F1B00000F06FF8A41CC4F3031040F047
:1025E0001000002100F067F804F00F00BDE8104073
:1025F000002100F060B800002DE9F041203A0024ED
:102600000D468046D6B27F2803D900208D1C804617
:10261000EDB2102B294610D0FFF7D6FF164906EB76
:10262000460001EB40050121285D00F044F8641CE0
:10263000E4B2062CF7D3BDE8F081FFF7C5FF0F4FDA
:1026400004EB06100121385C00F035F8641CE4B29C
:10265000082CF5D36D1CE9B24046FFF7B5FF002406
:1026600004EB061038440121007A00F024F8641CC1
:10267000E4B2082CF4D3DEE7A2400008CA42000806
:102680002DE9F041984617460E46044600250DE018
:10269000434631462046FFF7AFFF0834E4B2782CBA
:1026A00002D90024B61CF6B26D1CEDB27A5D002A88
:1026B000EED1BDE8F081C0B209B100F0C4BC00F0B9
:1026C000ABBC000008B1044801E00348001D0168EC
:1026D00041F0400101607047100C014010B58021AD
:1026E0000348FEF761FB012800D0002010BD000068
:1026F000000C01401FB500200190802000900120B7
:1027000002900320039069460148FEF75DFA1FBD61
:10271000000C014008B1044801E00348001D0168B5
:1027200041F0800101607047100C01401FB500208E
:1027300002908020009011200190032003906946B0
:102740000148FEF741FA1FBD000C01402DE9F041A0
:10275000074600248EB0884626460846FDF708FE48
:10276000C5B2FD208DF8000000208DF80100E81CA6
:102770008DF8020001208DF8030000EB07108DF8A2
:1027800004006F46B85D761C4440052EFAD3002045
:1027900004E000BF18F800104C40401CA842F9D3D8
:1027A0002A464146781DFDF702FE781964234471DC
:1027B000AA1D69460248FFF797F90EB0BDE8F081FF
:1027C000D40300202DE9F05F354C03254FF4167833
:1027D000607A4FF4C8794FF4FA77002680B9E07A2E
:1027E00068BB002241461046FFF7FAFD0022494629
:1027F0000120FFF7F5FD002239460220FFF7F0FD2A
:10280000607A022802D003280BD018E0002211467B
:102810001046FFF7E5FD002211460120FFF7E0FD1D
:102820006572E07A022812D1012241460020FFF7AA
:10283000D7FD012249461046FFF7D2FD6672E07AC5
:10284000022804D100221146FFF7CAFDE572B14605
:10285000144EDFF8548000254FF0080A4FF00A0BA1
:1028600014F81500B0B13068401C3060B84211D384
:1028700088F800A00D4888F801B0092188F80210F6
:1028800001780948FDF7CCFF09A10020C6F80090A7
:10289000FFF75CFF6D1CEDB2032DE1D9BDE8F09FA1
:1028A000EC04002030000020150000201100002062
:1028B0005B76375D5B6D315D5B74355DC2FAD4D894
:1028C000BEAFB1A80000000070B51A4D4FF48041B2
:1028D0002846FEF769FA00B10120174C4FF4004674
:1028E000314620702846FEF75FFA00B10120134DF3
:1028F000A0704FF480712846FEF756FA00B101200F
:1029000020714FF400612846FEF74EFA00B1012015
:10291000A0714FF480512846FEF746FA00B101201D
:10292000207231462846FEF73FFA00B10120A0721E
:1029300070BD0000000C0140EC04002000080140C4
:10294000FFF7C2FFFFF73EFF0A2000F01BFCF7E78E
:1029500070B50546114C002012B1012A0ED104E0D9
:10296000084601F07DFA0E4903E0084601F078FAC6
:102970000C4901F093F9214601F02EF90A49012D85
:102980000C6806D0022D03D101F04AFA80B2A06390
:1029900070BD01F045FA80B2606370BD000048422E
:1029A0006666663FCDCCAC3F44030020FEE70000E6
:1029B00010B5502080F31188BFF34F8FBFF36F8F96
:1029C00001F042F818B104494FF08050086000202F
:1029D00080F3118810BD000004ED00E030B58FB029
:1029E00028216846FDF77CFD14210AA8FDF778FD33
:1029F00001210804CDE9001000240294022504916D
:102A0000CDE907504FF4E01009906846FEF7A2FBAD
:102A100008B172B6FEE70F20CDE90A054FF48060D9
:102A2000CDE90C4002210AA80E94FEF797FA00287F
:102A300001D072B6FEE70FB030BD70470148FEF717
:102A4000AABD0000A4040020F0B50268194B1A4C7E
:102A50001A4D4FF08047984205D0B84203D0A042AB
:102A600001D0A84203D122F070064A68324398424E
:102A700005D0B84203D0A04201D0A84203D122F42D
:102A80004074CA6822434C6922F0800222430260EB
:102A90008A68C2620A688262984201D10969016348
:102AA000012141610169C90703D0016921F00101D8
:102AB0000161F0BD002C014000040040000800400E
:102AC00010B501F01F030121046A99408C43046290
:102AD000016A9A401143016210BD000030B5036ADB
:102AE000026A22F0010202624268846924F07305DE
:102AF0000C682C4323F002058B682B430A4DA84237
:102B00000BD123F00805CB6822F440722B434D69AA
:102B100023F0040315438A692A43426084614968AB
:102B20004163036230BD0000002C014030B5026AF1
:102B3000036A23F010030362436884690D6824F478
:102B4000E64444EA05248D6822F0200242EA051298
:102B50000B4DA8420ED1CD6822F0800242EA051248
:102B60004D6923F4406343EA85038D6922F04002F6
:102B700043EA85034360846149688163026230BD32
:102B8000002C014030B5036A026A22F480720262AE
:102B90004268C46923F4007324F073050C682C4365
:102BA0008D6843EA05230C4DA8420ED1CD6823F46D
:102BB000006343EA05234D6922F4405242EA0512BC
:102BC0008D6923F4806342EA05124260C46149685A
:102BD000C163036230BD0000002C014030B5046ABF
:102BE000026A22F4805202624268C3690D6823F4CB
:102BF000E64343EA05238D6824F4005444EA05348F
:102C0000064DA84204D14D6922F4804242EA851261
:102C10004260C36149680164046230BD002C014018
:102C200070B5446A2068406994F84110C0F3C01040
:102C30000025212904D118B1E584204600F0B4F81C
:102C40002068406994F84210C0F38010222904D112
:102C500018B1E585204600F080F8606C40F0100067
:102C600060642046FEF770FE70BD10B50146406AF4
:102C7000096809684FF0000289062ED4C2850168F0
:102C80000C3151E8003F23F4807341E80034002CFC
:102C9000F5D10168143151E8003F23F0010341E808
:102CA0000034002CF5D10168143151E8003F23F0C5
:102CB000400341E80034002CF5D1202180F8421077
:102CC000016B012909D101680C3151E8003F23F063
:102CD000100341E80034002CF5D14263016B012957
:102CE00002D0FEF7FFFE10BD818DFEF72CFE10BD59
:102CF00010B5406A01214163016B012902D0FEF742
:102D0000F2FE10BD818D4908FEF71DFE10BD10B505
:102D10000146406A09680968890616D40021C18401
:102D20000168143151E8002F22F0800241E80023AD
:102D3000002BF5D101680C3151E8002F42F0400220
:102D400041E80023002BF5D110BDFEF759FF10BD5F
:102D500010B5406AFEF755FF10BD01680C3151E80F
:102D6000002F22F4907241E80023002BF5D1016876
:102D7000143151E8002F22F0010241E80023002B1A
:102D8000F5D1016B012909D101680C3151E8002FFF
:102D900022F0100241E80023002BF5D1202180F819
:102DA000421000210163704701680C3151E8002F87
:102DB00022F0C00241E80023002BF5D1202180F849
:102DC0004110704770B5044600680169E26821F45B
:102DD0004051114301612169A068084361690843BA
:102DE0002168CA6841F20C639A430243CA602068B2
:102DF0004169A26921F44071114341611E49206873
:102E0000884202D1FEF770F901E0FEF75DF900EBB0
:102E1000C00101EB0012606864218000B2FBF0F396
:102E2000B3FBF1F36FF018067343B2FBF0F5B2FB9E
:102E3000F0F605EB8305322303EB0515B5FBF1F541
:102E4000B6FBF1F605F0F00505EB0615B2FBF0F662
:102E5000B2FBF0F0B0FBF1F06FF01802504306EB5C
:102E6000800003EB0010B0FBF1F0216800F00F00D0
:102E70002844886070BD00000038014038B5816288
:102E800004468285002013466064222284F8422092
:102E9000E56B1B4AAA62E56B1A4AEA62E56B1A4ABD
:102EA0002A63E26B50630A462168E06B091DFDF757
:102EB00041FE2068016840680090206948B12068A0
:102EC0000C3050E8001F41F4807140E80012002AE5
:102ED000F5D12068143050E8001F41F0010140E8AE
:102EE0000012002AF5D12068143050E8001F41F08C
:102EF000400140E80012002AF5D1002038BD000052
:102F00006B2C0008F12C0008212C00082DE9F84357
:102F1000984617460D460446089E24E0701C22D0B1
:102F2000FDF74CFFA0EB0800B0421AD8CEB12068E4
:102F3000C168490717D5802D15D0402D13D00168E1
:102F4000C94309070FD40168002540680090204656
:102F5000FFF703FF0820606484F840500120BDE8BB
:102F6000F8830320FBE72068006835EA000004D0FE
:102F70000020B842D2D00020F1E70120F9E700009C
:102F8000094C00250948FDF75BFC257021780848AD
:102F9000FDF784FA032206490648FEF795FD0A204C
:102FA00000F0F0F8EEE700001000002028000020FC
:102FB000120000208C030020FEE700002DE9F04104
:102FC000144F04464FF48056002231463846FDF730
:102FD000F0FE00254FF4005804F08000802816D041
:102FE000002241463846FDF7E4FE6006040E012249
:102FF00031463846FDF7DDFE002231463846FDF702
:10300000D8FE6D1CEDB2082DE6D3BDE8F08101229B
:10301000E7E70000000C014010B50446FEF7B6FEDD
:103020007820FFF7CBFFFEF7E3FE0020FFF7C6FF97
:10303000FEF7DEFE2046FFF7C1FFFEF7D9FEBDE832
:103040001040FEF7BFBE10B50446FEF79FFE782085
:10305000FFF7B4FFFEF7CCFE4020FFF7AFFFFEF70F
:10306000C7FE2046FFF7AAFFFEF7C2FEBDE81040EC
:10307000FEF7A8BE0907090E002804DB00F1E020D6
:1030800080F80014704700F00F0000F1E02080F895
:10309000141D7047002100E0491C8142FCD3704799
:1030A00010B50446FEF715FEA020FEF7D3FDFEF78F
:1030B00046FE2046FEF7CEFDFEF741FEFEF724FE5B
:1030C000FEF707FEA120FEF7C5FDFEF738FEFEF76E
:1030D0009AFD0446FEF7E5FDFEF716FE204610BDFC
:1030E00070B50D460446FEF7F4FDA020FEF7B2FDD4
:1030F000FEF725FE2046FEF7ADFDFEF720FE284632
:10310000FEF7A8FDFEF71BFEBDE87040FEF7FCBD14
:10311000FDF762FEFFF762FCFFF706F8FEF7B2FF6D
:10312000FFF71CF9FFF7FEF8FFF772F8FFF7B8F8A2
:1031300000210F48FEF7AEFB04210D48FEF7AAFB65
:1031400008210B48FEF7A6FB00210A48FEF7A2FB68
:1031500004210848FEF79EFBFFF79EF9FFF77FF971
:10316000FEF758FEFEF7ACFF00F013F8FEE7000094
:10317000FC0200204403002001460020842900D0E6
:10318000C81C704710B500B9012000F01FFB0020DB
:1031900010BD10B500F040FB002010BD7FB50D46FE
:1031A00004464169B0F9080081B1A16971B1FFF726
:1031B000E3FFD4E905128DE80700D4E900102B469F
:1031C000226900F016FC039004B070BDFFF7D4FF35
:1031D00003A9CDE90001208A2B4682B2D4E9001070
:1031E00000F0DAFB012801D00020EDE70398EBE7BF
:1031F0002DE9F041184C0F460546E6682068001D91
:1032000000F01CFA38B9206890F82C100120884092
:10321000216981432161681C07D137B12168BDE86C
:10322000F0410E48091D00F04DBA20683544B54202
:103230004560216805D2A06BBDE8F041091D00F092
:1032400029BA606B091D00F025FAA06A854200D2F8
:10325000A562BDE8F081000040000020F4050020D8
:103260002DE9F041054600F039FA2E4CA068401CCB
:10327000A06020682C4F10B1606940B32DE025603C
:10328000A068012829D1002606EB860007EB800004
:1032900000F0F2F9761C072EF6D323488C3000F0AC
:1032A000EBF92148A03000F0E7F91F48B43000F0F6
:1032B000E3F91D48C83000F0DFF91B48DC3000F0AE
:1032C000DBF919488C3060631430A06305E0206896
:1032D000E96AC06A884200D82560606A401C606262
:1032E000E96A0120226988401043206101EB8100D6
:1032F00007EB8000291D00F0E5F900F00FFA606986
:1033000000280CD02068E96AC06A884207D20749C1
:103310004FF080500860BFF34F8FBFF36F8FBDE851
:10332000F0810000400000201805002004ED00E0BE
:1033300010B5044690F8510058B101280CD002286D
:103340000FD0502080F31188BFF34F8FBFF36F8FE2
:10335000FEE7206B00F0F6F92046BDE8104000F0D3
:10336000F1B910BD10484FF44061420706D0C01DAE
:103370000D4920F00700411AC1F540610B4A0023B6
:103380000144C2E900030839183A21F0070111602D
:103390004B600B600B1AC0E9001393604FF00040C4
:1033A0005360506170470000080600209400002020
:1033B000144E154CA6F1C8074FF08058DFF84C901A
:1033C00012E000BF00F08AF9F068C568281D00F01F
:1033D00035F9A068401EA0606068401E606000F083
:1033E0009DF92846FFF7A4FF60680028EAD13868F5
:1033F0000128F9D9C9F80080BFF34F8FBFF36F8F51
:10340000F2E70000E00500204000002004ED00E0AD
:103410002DE9F0479A46DDE9098481466FF0030300
:10342000206B03EB82021044089E20F00707780708
:1034300007D0502080F31188BFF34F8FBFF36F8FF9
:10344000FEE7002561B1002023180A5C83F83420D0
:103450000A5C12B1401C1028F6D384F8435001E0F6
:1034600084F83450072E00D30626E662C4E91165BD
:10347000201D00F00CF904F1180000F008F9246197
:10348000C6F107006462A061E56484F850505246BA
:103490004946384600F0C0F82060B8F1000F01D06E
:1034A000C8F80040BDE8F08730B5114900E011468A
:1034B0000A688242FBD34B685C18844203D140689F
:1034C00018444860084643681C18944209D1084CC7
:1034D000183C2468A24209D052681A4442600A6823
:1034E00012680260814200D0086030BD0460F9E7D4
:1034F000940000200648416B096829B1416BC968F6
:10350000C9684968816270474FF0FF31FAE70000EF
:103510004000002008484068401C4FF0500080F3F5
:10352000118804D0BFF34F8FBFF36F8FFEE7BFF357
:103530004F8FBFF36F8FFEE79C0000202DE9F04115
:103540000546002700F09EF9324E306808B9FFF7B3
:1035500009FF706905424ED1C5B3083568070ED022
:1035600005F00700C0F108000544680707D05020A7
:1035700080F31188BFF34F8FBFF36F8FFEE72DB33A
:103580007068854237D82348183001460C6801E03E
:1035900020460C466168A94202D221680029F7D171
:1035A00031688C4227D0076821680160606808375D
:1035B000411B10290FD96019420708D0502080F311
:1035C0001188BFF34F8FBFF36F8FFEE713E04160A9
:1035D0006560FFF769FF61687068401A7060B268E3
:1035E000904200D2B060706901430020C4E900013C
:1035F000F068401CF06000F08DFA780707D050208A
:1036000080F31188BFF34F8FBFF36F8FFEE738460B
:10361000BDE8F0817C00002010B5031F4FF08074DE
:103620001C601B1F21F001011960191F024B0B6068
:10363000143940380A6010BD15350008D0E9013250
:1036400001699A60D0E901235A604A68824201D137
:1036500082684A60002202610868401E08600868AB
:1036600070470000034B036003F1540008608020A2
:1036700010607047A800002000F108014FF0FF32F1
:10368000C0E90112C16001610021016070470021A1
:103690000161704730B50B685A1C02D000F1080276
:1036A00002E0026904E02246546825689D42FAD986
:1036B00053684B6099608A60516008610168491CD9
:1036C000016030BD42684A6093688B6093685960BE
:1036D000916008610168491C01607047502080F3C7
:1036E0001188BFF34F8FBFF36F8F0A494868401CA2
:1036F000486001280CD10848006810F0FF0F07D07F
:10370000502080F31188BFF34F8FBFF36F8FFEE718
:10371000704700009C00002004ED00E00849486864
:1037200028B1401E486001D180F3118870475020B5
:1037300080F31188BFF34F8FBFF36F8FFEE7000058
:103740009C00002070B500282AD0164DA0F1080476
:1037500060686969084207D1502080F31188BFF37F
:103760004F8FBFF36F8FFEE722683AB1502080F38E
:103770001188BFF34F8FBFF36F8FFEE78843606000
:1037800000F080F860686968084468602046FFF7C8
:103790008BFE2869401C2861BDE8704000F0BAB972
:1037A00070BD00007C0000204FF0E020002101618E
:1037B000816105494FF47A720968B1FBF2F1491E43
:1037C00041610721016170472400002010B502000B
:1037D00014D00F48006B38B1502080F31188BFF32C
:1037E0004F8FBFF36F8FFEE700F04CF800211046BB
:1037F000FFF7FEFC00F08EF9002807D105494FF0D5
:1038000080500860BFF34F8FBFF36F8F10BD000073
:103810004000002004ED00E010B586B000240394C1
:1038200005AA04A903A80494FFF71CFFDDE903011E
:103830000094CDE9011000230EA11048059A00F074
:10384000D8F80F490028C86211D0502080F31188A1
:10385000BFF34F8FBFF36F8F4FF0FF3088620120AF
:103860004861CC6006B0BDE8104000F041B806B039
:1038700010BD000049444C4500000000B133000871
:10388000400000200248016B491C016370470000A2
:10389000400000201448016B11B10121C161704743
:1038A0000021C1610169B1FA81F1C1F11F0101EB90
:1038B00081020E4951F822306BB101EB820101F116
:1038C00008034A6852684A609A4201D152684A60C5
:1038D000D16801607047502080F31188BFF34F8F8B
:1038E000BFF36F8FFEE700004000002018050020A6
:1038F0001CB5264908780190FF20087008788DF8DB
:1039000000009DF800009DF8002000F0F0009042BB
:1039100007D0502080F31188BFF34F8FBFF36F8F14
:10392000FEE79DF800001A4C00F0500020700720C0
:10393000A06005E09DF8002052008DF80020401E98
:103940009DF800201206F5D4A060032807D050206F
:1039500080F31188BFF34F8FBFF36F8FFEE74FF4F3
:103960004070A060019808700A48016841F4700135
:103970000160016841F070410160FFF715FF002010
:103980006060FCF717FC00201CBD000000E400E0B4
:103990009C00002020ED00E02DE9FF5F8346DDE97B
:1039A0000E87994616468A469000FFF7C7FD050028
:1039B0001CD05420FFF7C2FD040014D00020256362
:1039C00084F85100CDE90240CDE900874B463246EC
:1039D00051465846FFF71CFD2046FFF741FC0120E9
:1039E00004B0BDE8F09F2846FFF7ACFE4FF0FF3073
:1039F000F6E7F0B585B0DDE90B640A9DA6B1DCB150
:103A0000542700972663022684F85160002604AFED
:103A1000CDE90246CDE90057FFF7FAFC2046FFF753
:103A20001FFC049805B0F0BD502080F31188BFF34F
:103A30004F8FBFF36F8FFEE7502080F31188BFF3E5
:103A40004F8FBFF36F8FFEE72DE9F0412F4C00261B
:103A5000206B28B1A069401CA0613046BDE8F08110
:103A6000E5686D1CE56013D1606B006838B15020CB
:103A700080F31188BFF34F8FBFF36F8FFEE7606B4A
:103A8000A16B6163A063206A401C2062FFF732FDD6
:103A9000A06ADFF87C80854209D3606B0068A0B122
:103AA000606BC068C7687868854211D2A0622068E0
:103AB000C06A00EB800158F82100012800D90126D6
:103AC000E0690028C9D00126C7E74FF0FF30EDE7D5
:103AD000381DFFF7B3FDB86A18B107F11800FFF7FA
:103AE000ADFDF96A0120226988401043206101EB95
:103AF000810108EB8100391DFFF7E4FDF86A2168B8
:103B0000C96A8842C9D30126C7E7000040000020E7
:103B1000180500202DE9F0472C4D00242746286B7E
:103B200038B1FFF7DBFD286B401E2863286B40B1DE
:103B300046E0502080F31188BFF34F8FBFF36F8FA3
:103B4000FEE7A968224E0120D1B3A6F1B409804650
:103B50003068E8B1F068C46804F11800FFF76EFD42
:103B6000201DFFF76BFDE06A2A6908FA00F1114396
:103B7000296100EB800109EB8100211DFFF7A2FD07
:103B8000E06A2968C96A8842E2D3C5F81C80DFE789
:103B90000CB1FFF7AFFCAC6944B14646FFF754FFE8
:103BA00000B1EE61641EF9D10020A861E86938B166
:103BB0000849012738070860BFF34F8FBFF36F8FA5
:103BC000FFF7ACFD3846BDE8F0870000400000205C
:103BD000CC05002004ED00E090EA010F48BF81F021
:103BE000004100F1A281421A3CBF801A89184FEAB5
:103BF000D0524FF07F4C1CEA410FA2EBD15318BFBB
:103C00009CEA026F00F03B804FF0004C4CEA002031
:103C10004CEA012121FA03FC10EB0C0C1ED202F13C
:103C2000FF325FEA1C2040EBC25038BF70471CF0E7
:103C30007F0F4FEA400C18BFBCF17F4F38BF704771
:103C4000C3F12003994008BF20F00100BCF17F4F71
:103C500038BF7047A0F1C04000F05BB94FEA3C00AC
:103C6000000A40EBC25028BF1CF0FF0F4FEA400C87
:103C7000E6D018BFBCF17F4F38BF7047EAE79CEA37
:103C8000026F05D010EA5C0F08BF00F000407047DB
:103C900010B500F0F8F800BF64FBBE3E4FF47F0C97
:103CA0001CEAD0121EBF1CEAD11392EA0C0F93EA51
:103CB0000C0F00F0858090EA010F48BF42F480723B
:103CC00040F4000C41F400002CF07F4120F07F40D4
:103CD00000B58142A2EB03020FF2081CACEB504E80
:103CE000C0F100009EF800E04FEA4E0E00FB0EFC13
:103CF00038BF49004FEA2C1C02F5FA020CFB0EF308
:103D00004FEACE1E4FEA112C4FEAC1210EEB635E43
:103D100042EB22420EFB0CFC4FEA1C5300FB03114A
:103D20004FEA112C4FEA01310EFB0CFC4FEADC4C40
:103D300000FB0C11C14228BF09184CEB03335DF89E
:103D400004EB10EB410143EBC250B2F57C0F38BFDE
:103D5000704729D512F0F00F1CBF00F1C04000F0F1
:103D600000407047008182838485868788898B8C98
:103D70008D8E8F919293959697999A9C9D9FA0A2D4
:103D8000A3A5A7A8AAACAEB0B2B3B5B7B9BCBEC024
:103D9000C2C5C7C9CCCED1D4D7D9DCDFE2E6E9ECC5
:103DA000F0F3F7FAFE0000004FEA400C0CF1807CC3
:103DB000BCF17E4F28BF7047B0F1C04000F0A9B8F9
:103DC00090EA010F0CEAD11348BF42F480726245B9
:103DD00038BF634507D213F47F0F16D080EA010085
:103DE00000F00040704710B500F04DF8097EFC3E31
:103DF00000F005B880EA010000F00040704780EA5A
:103E0000010000F0004000F084B812F47F0F04BFFE
:103E10000248704780EA010000F07BB80000C07FD4
:103E2000C10DD1F19E0206DB4FEA002343F00043AF
:103E300023FA02F07047004207D54FEA4001B1F182
:103E4000FE4F02D24FF00000704710B500F01BF893
:103E500049922480002070476FEA200070470000DC
:103E6000B0FA80F310FA03F2C3F19D030AD0D9052A
:103E700001EB1220530638BF704700F1010008BF64
:103E800020F0010070470EF1020E2EF0030E5EF8D6
:103E9000044B244204D44FEA4102B2F17F4F11D8BF
:103EA0004FEA4003B3F17F4F0CD80ED14FEAD07CDC
:103EB000B2F17F4F0CEB4C0C0CF1020C08BF4CEB39
:103EC000D17C04E04FF0080C01E04FEAD17C0CEB10
:103ED0004C0324FA03F404F00704B4F1040C06D2F2
:103EE0000EEB840CBDE810404CF0010C6047DFE89D
:103EF0000CF0070802024FF00040A0F5800010BD52
:103F00000846420018BFD2F1807288BF00F000401E
:103F100010BDFF2141EAD050C005704790EA010F63
:103F200048BF81F000413FF55EAE421A04D882F0EE
:103F30000042A0EB020011444FEAD0524FF07F4CF8
:103F40001CEA410FA2EBD15318BF9CEA026F4AD082
:103F50004FF0004C4CEA00204CEA012121FA03FC0E
:103F6000B0EB0C0C0FD412F0FE0F36D05FEA4C0011
:103F70001DD5001240EBC25038BF70471CF03F0FF8
:103F800018BF70470BE0A2F101025FEA1C2040EB72
:103F9000C25038BF70471CF07F0F18BF7047C3F185
:103FA0002003994014BF401E20F001007047800894
:103FB0004FEA122308BF7047B0FA80FCA2EB0C0254
:103FC000CCF1280C60FA0CF093EA122F04BF00EB3E
:103FD000C25070474FEAC3707047130A5FEADC10A3
:103FE00008BF7047F6E79CEA026F04D010EA5C0F46
:103FF00008BF0020704710B5FFF745FF40DFF63ED1
:1040000081F0004070470000D4480008AD29000846
:104010000000000000000000800000000000000020
:1040200000000000E0480008812F000800000000A8
:104030000000000080000000000000000000000000
:10404000BC4800086D2000080000000000000000CF
:10405000800000000000000000000000C8480008C8
:1040600041290008FDFF0000000000008000000062
:104070000000000000000000010202030405060722
:1040800008090A0B0C0D0E0F1010000000000000B4
:1040900000000102030406070809000000000102F5
:1040A00003040000000000000000002F00000000DA
:1040B0000700070000147F147F1400242A7F2A12AF
:1040C000006264081323003649552250000005039E
:1040D000000000001C224100000041221C000014CE
:1040E000083E08140008083E0808000000A0600010
:1040F00000080808080800006060000000201008A0
:104100000402003E5149453E0000427F400000420B
:1041100061514946002141454B31001814127F106E
:10412000002745454539003C4A494930000171099D
:10413000050300364949493600064949291E000051
:1041400036360000000056360000000814224100F8
:104150000014141414140000412214080002015128
:10416000090600324959513E007C1211127C007F31
:1041700049494936003E41414122007F4141221CCC
:10418000007F49494941007F09090901003E414931
:10419000497A007F0808087F0000417F4100002025
:1041A00040413F01007F08142241007F40404040D1
:1041B000007F020C027F007F0408107F003E414117
:1041C000413E007F09090906003E4151215E007F02
:1041D000091929460046494949310001017F010179
:1041E000003F4040403F001F2040201F003F40381C
:1041F000403F00631408146300070870080700615B
:104200005149454300007F41410000552A552A5538
:10421000000041417F0000040201020400404040D0
:104220004040000001020400002054545478007FF4
:104230004844443800384444442000384444487FCB
:1042400000385454541800087E0901020018A4A430
:10425000A47C007F080404780000447D40000040F6
:1042600080847D00007F102844000000417F4000D2
:10427000007C04180478007C080404780038444466
:10428000443800FC242424180018242418FC007C42
:104290000804040800485454542000043F444020BB
:1042A000003C4040207C001C2040201C003C403052
:1042B000403C004428102844001CA0A0A07C0044DE
:1042C00064544C441414141414140000000000002E
:1042D00000000000000000000000000000F80000E6
:1042E0000000000000333000000000100C06100C2D
:1042F0000600000000000000000040C07840C078C8
:104300004000043F04043F040400007088FC0830AF
:104310000000001820FF211E0000F008F000E01847
:10432000000000211C031E211E0000F00888700000
:1043300000001E2123241927211010160E00000052
:1043400000000000000000000000000000E0180471
:104350000200000000071820400000020418E000DE
:1043600000000040201807000000404080F080401E
:1043700040000202010F01020200000000F00000F4
:1043800000000101011F0101010000000000000008
:10439000000080B07000000000000000000000007D
:1043A0000000000101010101010100000000000006
:1043B00000000030300000000000000000008060BD
:1043C0001804006018060100000000E01008081042
:1043D000E000000F102020100F00001010F8000067
:1043E00000000020203F20200000007008080888FE
:1043F00070000030282422213000003008888848CE
:1044000030000018202020110E000000C02010F8FD
:10441000000000070424243F240000F808888808CE
:1044200008000019212020110E0000E010888818D3
:104430000000000F112020110E0000380808C838B5
:1044400008000000003F0000000000708808088895
:104450007000001C222121221C0000E0100808101E
:10446000E0000000312222110F00000000C0C00057
:10447000000000000030300000000000008000005C
:10448000000000008060000000000000804020105C
:104490000800000102040810200040404040404055
:1044A00040000404040404040400000810204080B8
:1044B00000000020100804020100007048080808ED
:1044C000F0000000003036010000C030C828E810BD
:1044D000E0000718272423140B000000C038E00078
:1044E0000000203C23020227382008F888888870C2
:1044F0000000203F202020110E00C03008080808CE
:104500003800071820202010080008F808080810B4
:10451000E000203F202020100F0008F88888E808DD
:104520001000203F20202320180008F88888E80881
:104530001000203F200003000000C03008080838A9
:10454000000007182020221E020008F808000008BA
:10455000F808203F210101213F20000808F8080841
:1045600000000020203F2020000000000808F8087C
:104570000800C08080807F00000008F888C02818EC
:104580000800203F20012638200008F8080000001D
:104590000000203F20202020300008F8F800F8F824
:1045A0000800203F003F003F200008F830C000080E
:1045B000F808203F200007183F00E0100808081006
:1045C000E0000F10202020100F0008F8080808084D
:1045D000F000203F210101010000E0100808081050
:1045E000E0000F18242438504F0008F88888888885
:1045F0007000203F2000030C30200070880808085D
:1046000038000038202121221C00180808F808086A
:1046100018000000203F2000000008F808000008F3
:10462000F808001F202020201F000878880000C8FC
:104630003808000007380E010000F80800F80008EC
:10464000F800033C0700073C0300081868808068F6
:10465000180820302C03032C30200838C800C83834
:1046600008000000203F2000000010080808C8389B
:1046700008002038262120201800000000FE020239
:1046800002000000007F40404000000C30C00000ED
:104690000000000000010638C00000020202FE0017
:1046A0000000004040407F000000000004020202C1
:1046B00004000000000000000000000000000000F6
:1046C00000008080808080808080000202040000E2
:1046D00000000000000000000000000080808080DA
:1046E00000000019242222223F2008F800808000C8
:1046F0000000003F112020110E000000008080808B
:104700000000000E11202020110000000080808891
:10471000F800000E112020103F20000080808080D3
:104720000000001F222222221300008080F08888CF
:1047300088180020203F202000000000808080801A
:104740008000006B94949493600008F8008080804F
:104750000000203F210000203F20008098980000AA
:1047600000000020203F20200000000000809898DA
:10477000000000C08080807F000008F8000080807A
:104780008000203F24022D302000000808F800009F
:1047900000000020203F202000008080808080805A
:1047A0008000203F20003F20003F808000808080EC
:1047B0000000203F210000203F20000080808080FA
:1047C0000000001F202020201F008080008080002B
:1047D000000080FFA12020110E00000000808080DA
:1047E0008000000E112020A0FF808080800080804B
:1047F000800020203F212000010000008080808078
:1048000080000033242424241900008080E080806C
:1048100000000000001F20200000808000000080B9
:104820008000001F202020103F208080800000801A
:10483000808000010E30080601008080008000802A
:1048400080800F300C030C300F00008080008080CF
:1048500080000020312E0E312000808080000080FA
:10486000808080818E7018060100008080808080AA
:1048700080000021302C2221300000000000807CCC
:10488000020200000000003F404000000000FF0066
:10489000000000000000FF0000000002027C800019
:1048A00000000040403F000000000006010102023D
:1048B0000404000000000000000000004C6F6F7056
:1048C0005461736B0000000053656E736F72546126
:1048D000736B000064656661756C745461736B0082
:1048E000556172745461736B000000000C4900083C
:1048F00000000020A800000028010008B4490008BA
:10490000A8000020C01700004401000800000000BB
:104910000000000000000000000000000003000094
:104920000000000001000000100000000000000076
:1049300000127A00000000000000000000000000EB
:104940000001000000000000000000000000000066
:104950000000000000000000000000000000000057
:104960000000000000000000000000000000000047
:104970000000000000000000000000000000000037
:104980000000000000000000000000000000000027
:104990000000000000000000000000000000000017
:1049A000000000000000000000000000AAAAAAAA5F
:0449B0000000000003
:04000005080000ED02
:00000001FF
