:020000040800F2
:100000007818002029020008CD2A0008E121000804
:100010001D2A0008970600080138000800000000AB
:100020000000000000000000000000009101000836
:10003000BD09000800000000D50100087930000863
:10004000430200084302000843020008430200087C
:10005000430200084302000843020008430200086C
:10006000430200084302000843020008430200085C
:100070004302000843020008310900083D09000856
:10008000430200084302000843020008430200083C
:10009000430200084302000843020008430200082C
:1000A000430200084302000843020008430200081C
:1000B000430200084302000805310008430200081B
:1000C00043020008430200084302000843020008FC
:1000D0004302000885370008430200084302000875
:1000E00043020008430200084302000800F002F83F
:1000F00000F03FF80AA090E8000C82448344AAF183
:100100000107DA4501D100F034F8AFF2090EBAE880
:100110000F0013F0010F18BFFB1A43F0010318473B
:10012000EC4F00000C500000103A24BF78C878C192
:10013000FAD8520724BF30C830C144BF04680C60ED
:10014000704700000023002400250026103A28BF35
:1001500078C1FBD8520728BF30C148BF0B60704739
:10016000642900F0C980002070471FB51FBD10B57D
:1001700010BD00F05BFA1146FFF7F7FF03F0ECFB50
:1001800000F079FA03B4FFF7F2FF03BC00F07CFA49
:10019000224B19680868B0E8F00F80F30988BFF3B4
:1001A0006F8F4FF0000080F311884EF00D0E7047F6
:1001B0000000000006480068006880F3088862B606
:1001C00061B6BFF34F8FBFF36F8F00DF00BF00BF7B
:1001D00008ED00E0EFF30980BFF36F8F0F4B1A6853
:1001E00020E9F00F106008B54FF0500080F311883F
:1001F000BFF34F8FBFF36F8F03F070FF4FF000001E
:1002000080F31188BDE8084019680868B0E8F00F6D
:1002100080F30988BFF36F8F704700BF4000002054
:10022000EFF3058070470000094880470948004700
:10023000FEE7FEE7FEE7FEE7FEE7FEE7FEE7FEE796
:10024000FEE7FEE704480549054A064B70470000F3
:1002500003310008ED000008781200207818002013
:1002600078140020781400200FB41CB5074B06AAA0
:100270007B4469460090059800F0BBF90020694670
:1002800000F0CAF91CBC5DF814FB0000A5030000D7
:100290002DE9F0410E460446002020622046E16828
:1002A000884730B3252805D0D4E901219047206A3A
:1002B000401CF2E7E168204600278847050018D077
:1002C000A5F14100192802D820354FF400673246C5
:1002D000294620462760FFF743FF40B1012804D09C
:1002E000F61D26F007060836D8E7361DD6E728465D
:1002F000DAE7206ABDE8F0812DE9F04106460024E6
:1003000010687529314616A510D0AFF3008000287B
:1003100002DA404213A507E031688A0701D512A529
:1003200002E0490704D511A5012401E0AFF30080E4
:1003300000210A2206F1240709E0B0FBF2FCB0FB21
:10034000F2F302FB1C00303078541846491C002898
:10035000F3D123462A463046BDE8F04100F0EAB822
:10036000000000002D0000002B0000002000000015
:1003700010B5431C02E010F8011B71B18107FAD1DE
:100380004FF0013202C88C1A8C4314EAC211F9D022
:10039000C01A0A0603D0C01E10BDC01A10BD0A0440
:1003A00001D0801E10BD0902FCD0401E10BD032AE2
:1003B00040F2308010F0030C00F0158011F8013B82
:1003C000BCF1020F624498BF11F801CB00F8013B69
:1003D00038BF11F8013BA2F1040298BF00F801CB2D
:1003E00038BF00F8013B11F0030300F02580083A04
:1003F000C0F0088051F8043B083A51F804CBA0E85B
:100400000810F5E7121D5CBF51F8043B40F8043BAF
:10041000AFF30080D20724BF11F8013B11F801CBE4
:1004200048BF11F8012B24BF00F8013B00F801CBB5
:1004300048BF00F8012B704710B5203AC0F00B8080
:10044000B1E81850203AA0E81850B1E81850A0E8D8
:100450001850BFF4F5AF5FEA027C24BFB1E8185032
:10046000A0E8185044BF18C918C0BDE810405FEAA2
:10047000827C24BF51F8043B40F8043B08BF70471E
:10048000D20728BF31F8023B48BF11F8012B28BF23
:1004900020F8023B48BF00F8012B70474FF00002E4
:1004A0000429C0F0128010F0030C00F01B80CCF186
:1004B000040CBCF1020F18BF00F8012BA8BF20F8F4
:1004C000022BA1EB0C0100F00DB85FEAC17C24BF48
:1004D00000F8012B00F8012B48BF00F8012B7047F2
:1004E0004FF0000200B5134694469646203922BFCD
:1004F000A0E80C50A0E80C50B1F12001BFF4F7AF18
:10050000090728BFA0E80C5048BF0CC05DF804EBF9
:10051000890028BF40F8042B08BF704748BF20F867
:10052000022B11F0804F18BF00F8012B7047704765
:10053000704770472DE9F0470D46994692460446AC
:1005400000F124080168880604D5E06921F0100153
:10055000216000E00120A84201DD471B00E00027E8
:10056000A1697A1902EB0900081AA0612078C00677
:1005700002D42046AFF30080002608E0D4E9012130
:100580001AF806009047206A401C761C20624E45EF
:10059000F4DB2078C0060AD52046AFF3008006E0E1
:1005A000D4E9012130209047206A401C2062381E87
:1005B000A7F10107F4DC07E0D4E9012118F80500F0
:1005C0009047206A401C2062281EA5F10105F3DC3B
:1005D0002046AFF300802078000602D50220BDE857
:1005E000F0870120FBE7000001694A1C02610878DE
:1005F000704700B58FB0CDE9013100210591054963
:100600007944CDE9031011466846FFF741FE0FB06B
:1006100000BD0000E5FFFFFF0A6802F8010B0A6059
:100620007047000000487047141200207546FFF71D
:10063000F9FFAE4605006946534620F0070085469F
:1006400018B020B5FFF7FEFDBDE820404FF00006D2
:100650004FF000074FF000084FF0000B21F00701AA
:10066000AC46ACE8C009ACE8C009ACE8C009ACE8ED
:10067000C0098D46704710B50446AFF30080204690
:10068000BDE81040FFF77EBD01491820ABBEFEE774
:10069000260002007047FEE72DE9F05F4E4A002475
:1006A0000227DFF82481494E494DDFF828B151680F
:1006B0004FF008094FF0090A012808D0022828D075
:1006C00003285BD0042822D101294CD009E001295C
:1006D00007D101220021104602F06EFC0122002108
:1006E00048E03D484068642804D101225A21022094
:1006F00002F062FC38484068C82803D101225A2120
:1007000010465EE034484168B1F5967F1AD0BDE8E6
:10071000F09F012909D101225A21104602F04CFC18
:1007200001220021022002F047FC2B484068642887
:1007300004D101225A21022002F03EFC26484168E1
:10074000C829E4D188F800407472F472446085F8D6
:1007500000906F7085F802A09BF80010BDE8F05F74
:100760001B4800F007B90122B421104602F024FC16
:100770000122B421022002F01FFCB2E701290BD1B3
:1007800001224FF48771104602F016FC01224FF44B
:100790008771022002F010FC0F484068642804D1E1
:1007A0000122B421022002F007FC0B484068C8284F
:1007B000A8D101225A21022002F0FEFB01225A2177
:1007C000022002F0F9FB9DE73C000020F804002025
:1007D000120000200D0000202C0000202DE9F05F09
:1007E000524A00240227DFF834814D4E4D4DDFF888
:1007F00038B1916840F2F5134FF008094FF0090A3B
:10080000012808D002282AD003285FD0042824D148
:10081000994250D009E0994207D1012200211046A7
:1008200002F0CAFB012200214CE040488068B0F58C
:10083000167F04D101225A21022002F0BDFB3B4861
:100840008068B0F52F7F03D101225A21104662E063
:1008500036488168B1F5487F1CD0BDE8F09F9942C9
:1008600009D101225A21104602F0A6FB01220021E3
:10087000022002F0A1FB2D488068B0F5167F04D15C
:1008800001225A21022002F097FB28488168B1F525
:100890002F7FE2D188F800407472F472846085F88A
:1008A00000906F7085F802A09BF80010BDE8F05F23
:1008B0001C4800F05FB80122B421104602F07CFB16
:1008C0000122B421022002F077FBAEE799420BD15E
:1008D00001224FF48771104602F06EFB01224FF4A3
:1008E0008771022002F068FB10488068B0F5167F1F
:1008F00004D10122B421022002F05EFB0B48806883
:10090000B0F52F7FA4D101225A21022002F054FB1E
:1009100001225A21022002F04FFB99E73C000020FF
:10092000F8040020120000200D0000202C00002000
:10093000014800F029B9000060040020014800F0DF
:1009400023B900001C04002030B590F84050012469
:10095000AC40C56B6C60046863604368102B03682F
:1009600003D099600068C26030BD9A600068C160C1
:1009700030BD00000A4610B50146054801F0F2FB03
:10098000002803D0BDE8104000F08CB810BD000076
:100990008C0300200022084902E0521CD2B2491CFC
:1009A0000B78082B02D0042AF7D970478A78092AD5
:1009B000FBD14978017070470F000020704700009C
:1009C00010B51F4C88B01FA168462268FFF74CFC89
:1009D00000211E236A46084602F064F91CA16846FD
:1009E0006268FFF741FC1E236A460121002002F0E5
:1009F00059F91AA16846A268FFF736FC1E236A4619
:100A00000221002002F04EF917480068012811D099
:100A1000022811D0032811D0042809D113A1684657
:100A2000FFF722FC1E236A460321002002F03AF958
:100A300008B010BD10A1F2E713A1F0E715A1EEE791
:100A4000EC0400204D315F53504545443A25640085
:100A50004D325F53504545443A2564004D335F5352
:100A6000504545443A256400380000204341535422
:100A70003A4841524D000000434153543A524543D5
:100A800059434C4500000000434153543A4F5448E9
:100A900045520000434153543A4B49544348454E54
:100AA0000000000072B6FEE710B590F82110002299
:100AB000022905D00421816380F82020012010BD87
:100AC00001680B6823F00E030B6001680B6823F0CC
:100AD00001030B6090F84030C46B012101FA03F36D
:100AE000636080F8211080F82020104610BD0000BF
:100AF00010B590F821100024022903D0042181634D
:100B000001243DE001680A6822F00E020A600168D3
:100B10000A6822F001020A601A4A0168914201D172
:100B2000012121E0174A1432914201D110211BE02A
:100B3000144A2832914201D1891515E0114A3C32FC
:100B4000914201D189140FE00E4A5032914202D1F4
:100B50004FF4803108E00B4A6432914202D14FF4E5
:100B6000801101E04FF08071064A083A516001217E
:100B700080F82110002180F82010416B01B18847D6
:100B8000204610BD080002402DE9F05FC16B0C68E3
:100B900001680B68D0F840C0042202FA0CF2494DFB
:100BA000DFF824A1494E4A4FDFF828B1DFF828E1E9
:100BB00022422CD05A072AD50A68920603D40A6822
:100BC00022F004020A600168A94201D1042219E05E
:100BD000514501D1402215E0B14202D14FF480626B
:100BE00010E0B94202D14FF480420BE0594502D1E6
:100BF0004FF4802206E0714502D14FF4800201E0FB
:100C00004FF080622F4908394A60C16A3BE04FF0DB
:100C1000020808FA0CF818EA040F4FF000094FF028
:100C2000010235D05FEA837832D50B689B0605D484
:100C30000B6823F00A030B6080F821200168A942A9
:100C400001D1022219E0514501D1202215E0B14223
:100C500002D14FF4007210E0B94202D14FF40052B9
:100C60000BE0594502D14FF4003206E0714502D144
:100C70004FF4001201E04FF00072124908394A6047
:100C800080F82090816A00291AD0BDE8F05F0847FB
:100C9000082505FA0CF5254212D01B0710D50B6864
:100CA00023F00E030B6090F84010C36B02FA01F1C1
:100CB0005960826380F8212080F82090016BE2E780
:100CC000BDE8F09F080002401C00024030000240D6
:100CD00044000240580002406C00024030B528B386
:100CE00008C8134914221944B1FBF2F18900C16309
:100CF00010498163022141771A6843F6F0718A43F3
:100D0000D0E900142143D0E902452C432143046972
:100D1000214344692143846921431143196000211F
:100D20004163012242770177084630BD012030BD82
:100D3000F8FFFDBF0000024070B5044690F82000A7
:100D4000002501280CD0012084F8200094F82160AF
:100D50000020012E06D084F820000225284670BD10
:100D6000022070BD022684F82160A0632068066816
:100D700026F0010606602046FFF7E6FDE06A00283F
:100D80002068016802D041F00E0106E021F0040164
:100D900001602068016841F00A0101602068016873
:100DA00041F001010160D9E770B5044600F008F98F
:100DB0000546601C02D004480078044400F000F9A5
:100DC000401BA042FAD370BD180000202DE9F84F57
:100DD000DFF8B8910024A9F1040B23460F2709F18D
:100DE000040AABF1040EC9E00125A5402A40AA423D
:100DF0007DD1674ED1F804C0ACEB0608B44532D0C3
:100E000014DCBCF1030F3AD009DCBCF1000F2AD08E
:100E1000BCF1010F1CD0BCF1020F31D11DE0BCF1BF
:100E2000110F17D0BCF1120F2AD119E0B8F5881FA5
:100E300019D006DCB8F5803F15D0B8F5801F1FD15A
:100E400011E0B8F5001F0ED0B8F5041F18D10AE064
:100E5000CB6815E0CB681B1D12E0CB6808330FE0B0
:100E6000CB680C330CE08B682BB1012B4FF00803DF
:100E700003D0456104E0042302E0056100E00023A3
:100E8000FF2A01D8064601E000F104064FEA840576
:100E900001D9A5F12005D6F8008007FA05FC28EA5B
:100EA0000C0803FA05F548EA0508C6F800804D6805
:100EB000ED0062D5374DAE6946F00106AE61AD6911
:100EC00024F0030605F001050095334D06EB050CF3
:100ED000DCF80850A607360F07FA06F825EA0805D9
:100EE000DFF8B880404503D14FF0000817E044E038
:100EF000DFF8AC80404502D14FF001080FE0DFF889
:100F0000A480404502D14FF0020808E0DFF8988045
:100F1000404502D14FF0030801E04FF0040808FA01
:100F200006F848EA0508CCF808804D68D9F8006052
:100F3000ED024D4601D5164300E096432E604D6804
:100F4000DAF80060AD02554601D5164300E096433D
:100F50002E604D68DBF80060AD035D4601D5164399
:100F600000E096432E604D68DEF80060ED037546A4
:100F700001D5164300E096432E60641C0D682A4696
:100F8000E5407FF431AFBDE8F88F00000804014070
:100F90000000111000100240000001400008014054
:100FA000000C01400010014000140140806808401E
:100FB00000D0012070470AB1016170470904FBE7C6
:100FC00001488068704700001800002002488168CE
:100FD000027811448160704718000020074810B55E
:100FE000016841F010010160032000F0A7F80F2014
:100FF00000F006F800F050F8002010BD002002407C
:1010000030B505461F4887B0C16941F00401C16190
:10101000C06906A900F00400009001A800F036F9AC
:101020000498B0B100F052F940001749174AB0FBDC
:10103000F1F11748491E0260416040F2E732002199
:10104000C0E903218160816100F04CFB040003D002
:1010500015E000F03BF9E8E70D4800F083FB0400E1
:101060000DD11E2000F03CF8102D07D20022294699
:101070001E2000F043F80748056000E0012407B097
:10108000204630BD0010024040420F0000080040E2
:10109000A40400201C0000200F4808B5816941F01D
:1010A00001018161816901F001010091C16941F093
:1010B0008051C161C069002200F0805000900F2172
:1010C000901E00F01BF80548416821F0E06141F0F6
:1010D0000071416008BD00000010024000000140A6
:1010E000002809DB00F01F02012191404009800027
:1010F00000F1E020C0F8001170470000F0B40E4B82
:101100001B680C46C3F30223C3F10705042D00D965
:101110000425191D072901D2002300E0DB1E01264A
:1011200006FA05F1491E214099409E40761E164060
:101130003143F0BC02F0C2BB0CED00E0064900F008
:10114000070208684FF6FF03184040EA0220034AEE
:1011500010430860704700000CED00E00000FA0545
:101160002DE9F0470F46050061D0434E306800F08E
:101170000700B84209D2306820F0070038433060D9
:10118000306800F00700B84251D128683B4C810715
:1011900012D5400703D5606840F4E06060602878AD
:1011A000000703D5606840F4605060606068A9681B
:1011B00020F0F000084360602878C00728D06868F5
:1011C000012810D02168022810D0890700292EDAC2
:1011D000616821F0030101436160FFF7F1FE804681
:1011E00041F288390DE021688903EFE78901EDE7D5
:1011F000FFF7E6FEA0EB0801494502D90320BDE850
:10120000F0876068696800F00C00B0EB810FEFD1E7
:10121000306800F00700B8420BD9306820F00700B2
:1012200038433060306800F00700B84201D0012038
:10123000E5E72878400705D56068E96820F4E060B4
:10124000084360602878000706D56068296920F4A3
:10125000605040EAC100606000F058F86168084AD8
:10126000C1F30311515CC840064908600648006894
:10127000FFF7C6FE0020C2E7002002400010024037
:10128000B6480008240000201C0000200F22026045
:101290000C4A536803F003034360536803F0F00300
:1012A0008360536803F4E063C36052684FF4E06303
:1012B00003EAD20202610448006800F007000860F7
:1012C0007047000000100240002002400448054919
:1012D00000684968044AC1F30221515CC840704764
:1012E0002400002000100240C648000804480549B8
:1012F00000684968044AC1F3C221515CC840704784
:101300002400002000100240C64800080E4A516820
:101310000E4801F00C03042B11D0082B0FD10C4800
:10132000C1F38343C903C05C0AD55168084AC1F3BD
:101330004041921E515C054A5043B0FBF1F07047AA
:1013400004494843704700000010024000127A0030
:10135000A648000800093D002DE9F84F040070D0B0
:101360002078C04DC00749D06868C0F381000128CB
:1013700007D06868C0F38100022809D16868C003FB
:1013800006D52868800339D560680028E7D035E0A5
:101390006068B0F5803F0BD010B1B0F5A02F11D030
:1013A000286820F480302860286820F4802002E03B
:1013B000286840F480302860606890B1FFF700FE34
:1013C00006460AE0286840F480202860F0E700BF65
:1013D000FFF7F6FD801B642873D828688003F7D5D3
:1013E0000CE0FFF7EDFD064605E000BFFFF7E8FD66
:1013F000801B6428F0D828688003F7D420789A4EA0
:1014000080074FF001094FF0000839D5686810F0E7
:101410000C0F07D06868C0F38100022809D1686802
:10142000C00306D42868800714D52069012808D194
:1014300010E02069B0B1C6F80090FFF7C1FD074683
:1014400005E00AE1FFF7BCFDC01B0228C4D82868EC
:101450008007F7D52868616920F0F80040EAC100EC
:1014600028600DE0C6F80080FFF7AAFD074604E0FB
:10147000FFF7A6FDC01B022823D828688007F7D4F1
:10148000207800072CD57948A169D9B1C0F800901F
:10149000FFF796FD074604E0FFF792FDC01B022808
:1014A0000FD8686A8007F7D571484FF4FA51006881
:1014B000B0FBF1F0009000BF0098411E0091FAD2FD
:1014C0000EE080E0C0F80080FFF77AFD074604E0F8
:1014D000FFF776FDC01B022875D8686A8007F7D42D
:1014E0002078400760D5E8690027C00008D4E86983
:1014F00040F08050E861E869012700F080500090DA
:101500005C480168C90513D40168834641F48071C1
:101510000160FFF755FD824606E000BFFFF750FD72
:10152000A0EB0A0064284ED8DBF80000C005F5D512
:10153000E06801280AD008B1052813D0286A20F0F5
:1015400001002862286A20F0040002E0286A40F0C6
:1015500001002862E06841F2883B98B1FFF730FD56
:1015600082460BE0286A40F004002862EEE700BFE4
:10157000FFF726FDA0EB0A0159455AD8286A8007D3
:10158000F6D50CE0FFF71CFD824605E0FFF718FDDD
:10159000A0EB0A0159454CD8286A8007F6D41FB140
:1015A000E86920F08050E861E06988B36968C1F3B8
:1015B0008101022944D00228C6F8608004D0FFF7D8
:1015C000FFFC044638E034E0FFF7FAFC074604E08D
:1015D000FFF7F6FCC01B02282BD828688001F7D43F
:1015E000206AB0F5803F05D16868A16820F400301A
:1015F00008436860D4E908010843696821F474115C
:1016000008436860C6F86090FFF7DAFC044606E01D
:1016100025E000BFFFF7D4FC001B022809D828688A
:101620008001F7D51BE000BFFFF7CAFC001B0228B2
:1016300002D90320BDE8F88F28688001F4D40EE0B9
:101640000128F7D06868226A00F48031914204D101
:10165000616A00F47010884201D00120EAE700209E
:10166000E8E70000001002400000424280044242CD
:1016700024000020007000407047704770B590F85B
:101680003C20012A26D0012480F83C40022280F828
:101690003D2003685A689D6822F070060A6832434C
:1016A0005A600D4B02689A4208D0B2F1804F05D0C3
:1016B0000A4B9A4202D00A4B9A4204D1496825F05B
:1016C00080031943916080F83D40002180F83C1070
:1016D000084670BD022070BD002C0140000400408F
:1016E0000008004010B5040003D094F83D0010B18C
:1016F00007E0012010BD002084F83C00204600F0E7
:101700001FF8022084F83D00211D206801F000FD33
:10171000012084F8460084F83E0084F83F0084F8F5
:10172000400084F8410084F8420084F8430084F8C3
:10173000440084F8450084F83D00002010BD0000FE
:1017400008B50068B0F1804F08D10548C16941F083
:101750000101C161C06900F00100009008BD0000F6
:101760000010024090F83D10012901D0012070477F
:10177000022180F83D100168CA6842F00102CA6087
:1017800000680B49884208D0B0F1804F05D0094964
:10179000884202D00849884204D1816801F00701DB
:1017A000062903D0016841F0010101600020704763
:1017B000002C0140000400400008004070B50446C1
:1017C00090F83C000025012817D0012684F83C60E1
:1017D000022084F83D002068826822F0770222F41B
:1017E0007F4282600868502838D00DDC20284FD016
:1017F00005DC90B3102811D14AE0022070BD3028DA
:1018000046D040280AD13BE060282FD070280DD068
:10181000B0F5805F03D0B0F5005F12D0012584F8E9
:101820003D60002084F83C00284670BDCB68D1E9BB
:101830000121206801F0B5FC2068816841F0770142
:1018400009E0CB68D1E90121206801F0AAFC2068F9
:10185000816841F480418160E1E719E0CA68496824
:10186000206801F053FD5021206806E0CA684968ED
:10187000206801F05CFD6021206801F09CFCCEE74F
:10188000CA684968206801F041FD40212068F4E7FA
:10189000226801461046F0E770472DE9F041044602
:1018A0000068C66805694FF00007A90713D5B1079E
:1018B00011D5F91E01610120207720688069800719
:1018C000204602D0FFF7E8FF04E000F0B1F8204620
:1018D00000F056F92777680716D5700714D52168E8
:1018E0006FF004000861022020772068806910F4FE
:1018F000407F204602D0FFF7CFFF04E000F098F8C9
:10190000204600F03DF92777280715D5300713D575
:1019100021686FF008000861042020772068C06902
:101920008007204602D0FFF7B7FF04E000F080F800
:10193000204600F025F92777E80616D5F00614D5DD
:1019400021686FF010000861082020772068C069C6
:1019500010F4407F204602D0FFF79EFF04E000F025
:1019600067F8204600F00CF92777E80708D0F00761
:1019700006D021686FF001000861204600F050F9A0
:10198000280608D5300606D521686FF0800008616A
:101990002046FFF771FE680608D5700606D5216857
:1019A0006FF040000861204600F044F9A8060AD50F
:1019B000B00608D521686FF0200008612046BDE818
:1019C000F041FFF75ABEBDE8F081000010B586B0C7
:1019D00000210091019102910391036811490222B3
:1019E0001148B3F1804F13D0104CA3420ED18B6934
:1019F00043F004038B61896901F004010491C02163
:101A0000CDE9001269460392FFF7E0F906B010BD78
:101A10008B6943F004038B61896901F0040104912F
:101A20000721EDE7001002400008014000040040DB
:101A3000704770B5044690F83C0000260D4601281A
:101A40000FD0012084F83C006AB1042A1DD0082A76
:101A50002FD00C2A3FD00126002084F83C003046CD
:101A600070BD022070BD206801F0AEFB2068816966
:101A700041F0080181612068816921F004018161E0
:101A8000206881692A69114311E0206801F0C4FBD4
:101A90002068816941F4006181612068816921F4D5
:101AA00080618161206881692A6941EA022181613E
:101AB000D2E7206801F0DCFB2068C16941F0080131
:101AC000C1612068C16921F00401C1612068C16958
:101AD0002A69114311E0206801F0F6FB2068C16912
:101AE00041F40061C1612068C16921F48061C16174
:101AF0002068C1692A6941EA0221C161ACE710B5D9
:101B0000040003D094F83D0010B107E0012010BD9F
:101B1000002084F83C00204600F01EF8022084F8E3
:101B20003D00211D206801F0F3FA012084F84600F1
:101B300084F83E0084F83F0084F8400084F84100B7
:101B400084F8420084F8430084F8440084F8450097
:101B500084F83D00002010BD08B5006806498842A1
:101B600008D10648C16941F00201C161C06900F0B5
:101B70000200009008BD0000000400400010024078
:101B80007047000010B50446022249B104290ED066
:101B9000082913D094F84100012816D0012010BD67
:101BA00094F83E000128F9D184F83E200FE094F823
:101BB0003F000128F2D184F83F2008E094F840006B
:101BC0000128EBD184F8402001E084F84120012273
:101BD000206801F0D9FA0F492068884203D1426C8D
:101BE00042F4004242642068884208D0B0F1804F3D
:101BF00005D00949884202D00849884204D1816849
:101C000001F00701062903D0016841F001010160DC
:101C1000002010BD002C01400004004000080040DE
:101C200000680349884201D1FFF7D0B9704700002E
:101C3000000800407047704710B5044600684069CE
:101C400094F84110C0F3C010212911D180B120684F
:101C5000143050E8001F21F0800140E80012002AF3
:101C6000F5D1A06B08B1FEF71FFF204601F03DFC47
:101C70002068406994F84210C0F38010222911D1E5
:101C800080B12068143050E8001F21F0400140E886
:101C90000012002AF5D1E06B08B1FEF705FF2046DF
:101CA00001F0FCFB002010BD70470000F8B5016892
:101CB00004460868CA684B6910F00F0F4FF0000522
:101CC0005AD003F0010602F49077374365D0C1077C
:101CD00005D0D10503D5616C41F001016164410774
:101CE00005D5D90703D0616C41F002016164810719
:101CF00005D5D90703D0616C41F004016164010787
:101D000007D502F02001314303D0616C41F0080196
:101D10006164616C00293BD0800604D5900602D531
:101D2000204601F0F0FB20684069616CC0F3801030
:101D300001F00801014320462BD001F0AFFB2068E1
:101D40004069400621D52068143050E8001F21F07A
:101D5000400140E80012002AF5D1E06BA8B16D49BE
:101D60004163E06BFEF7C4FE002811D0E06B416BCD
:101D700001B0BDE8F040084783060ED593060CD5A8
:101D80002046BDE8F84001F0BEBB2046FFF78CFFBF
:101D9000F8BDFFF789FF6564F8BD266B2023012E8F
:101DA0007CD1C6067AD5D60678D5086848680090F2
:101DB00048694FF00206400640D5E16B086840686C
:101DC0000004000CE8D0A28D8242E5D9E085886944
:101DD00020282DD020680C3050E8001F21F480719D
:101DE00040E80012002AF5D12168143151E8000FB3
:101DF00020F0010041E80002002AF5D120681430EB
:101E000050E8001F21F0400140E80012002AF5D1FF
:101E100084F84230256320680C3050E8001F21F020
:101E2000100140E80012002AF5D1E06BFEF73CFEFD
:101E30006663A08DE18D401A81B22AE0A08DE18D0C
:101E4000401A81B2E08D0028A6D00029A4D02268D3
:101E50000C3252E8000F20F4907042E80007002F87
:101E6000F5D12068143050E8002F22F0010240E83C
:101E70000027002FF5D184F84230256320680C300C
:101E800050E8002F22F0100240E80023002BF5D18B
:101E900066632046FFF7CFFEF8BDFFE705062BD5AA
:101EA000150629D594F841002128F5D1A068B0F590
:101EB000805F01D12069B0B1206A411C2162216894
:101EC00000784860E08C401E0004000CE084E3D100
:101ED0002068C16821F08001C1602068C16841F0BC
:101EE0004001C160D8E7206A0088C0F3080048605C
:101EF000206A801C2062E5E74006CDD55006CBD590
:101F0000CA68204622F04002CA6084F8413000F0DE
:101F100065F9C1E75333000870B5040004D094F8A4
:101F20004100002510B106E0012070BD84F840504A
:101F3000204600F023F8242084F841002068C1687E
:101F400021F40051C160204601F03EFB2068016988
:101F500021F4904101612068416921F02A01416129
:101F60002068C16841F40051C1606564202084F894
:101F7000410084F842006563002070BDF0B585B073
:101F800000240094019402940394064603683F4899
:101F90003D4D022103220715AB4251D1836943F421
:101FA00080438361836903F480430493836943F02E
:101FB000040383618069364D00F004000490080238
:101FC000CDE90001039269462846FEF7FFFECDE900
:101FD0000074694628460294FEF7F8FE2E4D2D48FF
:101FE0008027C5E90004C5E902472C616C61AC613A
:101FF0002846EC61FEF772FE08B1FEF753FDF5636B
:102000006E62254D23484435143801C5102091C512
:10201000214845F8104944306C61AC61EC61FEF731
:102020005DFE08B1FEF73EFDB563002205212520C7
:102030006E62FFF763F82520FFF752F805B0F0BD98
:10204000164DAB42FAD1C36943F48023C361C3691F
:1020500003F480230493836943F008038361806958
:10206000CDE9007100F00800CDE903200C4D694670
:102070002846FEF7ABFEE814CDE900046946284681
:102080000294FEF7A3FED9E7003801400010024099
:1020900000080140580002401C0400200048004095
:1020A000000C014090F84230202B01D002207047F4
:1020B00021B11AB10023036301F0E2BA0120704795
:1020C000704770472DE9F843044690F84100984660
:1020D00016460D46202802D00220BDE8F88385B1BF
:1020E0007EB100206064212084F84100FEF768FF83
:1020F000A6848146E684A0682027B0F5805F02D0E0
:1021000003E00120E9E7206910B12E4600250EE02A
:1021100000260CE08021204601F0FAFAA8B9C6B1E9
:1021200016F8010B21684860E08C401EE084E08CCA
:102130004B464FF00002CDF800800028EAD14FF066
:102140004001204601F0E4FA40B184F841700320D8
:10215000C3E735F8020BC0F30800E3E784F84170E9
:102160000020BAE770B5044690F84100202801D05D
:10217000022070BD49B342B32162A284E2840020F0
:102180006064212384F84130A56B114BAB62A56BD1
:10219000104BEB62A56B104B2B63A36B5863256848
:1021A00013462A1DA06BFEF7C7FD21686FF04000A3
:1021B00008602068143050E8001F41F0800140E8BA
:1021C0000012002AF5D1002070BD012070BD000072
:1021D0005134000893340008633300087047704797
:1021E000FEE770B50824002500F096FD13E06806B0
:1021F000050E002000F078FD142001F06FFB142084
:1022000001F06CFB012000F06FFD142001F066FB73
:1022100000F076FD0543641EE4B2E8D2002000F031
:1022200063FD142001F05AFB00F092FD284670BDBA
:1022300070B50446082516E000F056FD142001F0A4
:102240004DFB04F0800000F077FD142001F046FB08
:102250006006040E142001F041FB012000F044FD53
:10226000142001F03BFB6D1EEDB24FF00000E3D2F5
:1022700000F03AFDBDE87040142001F02FBB10B50E
:10228000012000F059FD142001F028FB142001F07A
:1022900025FB012000F028FD142001F01FFB002089
:1022A00000F022FDBDE81040142001F017BB10B56E
:1022B000012000F041FD142001F010FB012000F08E
:1022C00013FD142001F00AFB002000F035FD14205E
:1022D00001F004FB002000F007FDBDE810401420D1
:1022E00001F0FCBA10B5002000F0FEFC142001F053
:1022F000F5FA002000F020FD142001F0EFFA012093
:1023000000F0F2FC142001F0E9FA012000F014FDC5
:10231000BDE81040142001F0E1BA10B5052400F02A
:10232000FBFC142001F0DAFA012000F0DDFC14209F
:1023300001F0D4FA05E0641EA4B2142001F0CEFA34
:1023400064B100F0DDFC0028F5D100F0CDFC00F018
:10235000FFFC142001F0C2FA002010BD00F0F8FCD0
:10236000FFF7C0FF012010BD70B501220B4D140313
:1023700021462846FEF71FFE012256033146284615
:10238000FEF719FE002231462846FEF714FE2146CC
:102390002846BDE870400022FEF70DBE000C01404B
:1023A00070B5094C012211032046FEF704FE6514A6
:1023B000002229462046FEF7FEFD29462046BDE8BC
:1023C00070400122FEF7F7BD000C014070B50122FC
:1023D000064D140321462846FEF7EDFD214628460A
:1023E000BDE870400022FEF7E6BD0000000C014091
:1023F00070B5294900204872C87228490870012028
:1024000001F072FA0446002001F06EFA244904EB50
:1024100000200860032001F067FA0446022001F062
:1024200063FA04EB00201F4C2060052001F05CFAE9
:102430000546042001F058FA05EB002060600720F3
:1024400001F052FA0546062001F04EFA05EB002095
:10245000A0602088012281B2002000F0E1FAA0886B
:10246000012281B2104600F0DBFA2089012281B2FC
:10247000022000F0D5FA00225A21012000F09CFD34
:1024800001225A21022000F097FDBDE8704003228E
:1024900005490648FFF706BEF80400203C0000206E
:1024A00038000020EC0400200F0000208C030020E6
:1024B00070B5284D08212846FEF778FD00B10120AF
:1024C000254C102160702846FEF770FD00B10120F8
:1024D000607220212846FEF769FD00B1012060747A
:1024E0004FF480712846FEF761FD00B1012060764F
:1024F000002002465FF0010114F8303023B1012BB7
:102500000AD0022B1ED112E004EBC0035D78CDB9D6
:1025100004F830105A6015E004EBC0035B7813B187
:1025200004F830200EE0022304F830300AE004EB17
:10253000C0035D78012D09D05D686D1C5D60462D7E
:1025400000D9D970401C0428D6DB70BD04F83020B7
:102550009970F7E7000C0140040500202DE9F041D7
:10256000394D3A4F0026A87C012807D13878401C05
:10257000C0B23870022800D93E70AE743878344C3E
:102580004FF47A7820B101281BD002284BD131E0DA
:10259000A87801280AD100F09AFA7E702068643089
:1025A0002060404501D9C4F80080AE70A87A0128A7
:1025B00039D100F08CFA7E70206898B364382060BE
:1025C00030E0A87801280AD100F081FA7E706068B6
:1025D00064306060404501D9C4F80480AE70A87AC8
:1025E000012820D100F073FA7E706068D0B16438A1
:1025F000606017E0A87801280AD100F068FA7E70C0
:10260000A0686430A060404501D9C4F80880AE706D
:10261000A87A012807D100F05AFA7E70A06808B1A4
:102620006438A060AE72A87E01280BD100F04FFA8A
:1026300006480C300168491C0160042901D90121B8
:102640000160AE76BDE8F081040500202C0000207A
:10265000EC0400200D4C0E4D44F620660A2001F0DB
:10266000B5F9012208212046FEF7A5FC0022102121
:102670002046FEF7A0FC2868C663FFF719FFFFF7A6
:102680006DFF00F0A5F9FEF79BF9E7E700080140B0
:10269000FC0200200D4808B5416941F0010141618B
:1026A0004069002200F00100009005210E20FEF795
:1026B00025FD0E20FEF714FD002205210F20FEF758
:1026C0001DFDBDE808400F20FEF70ABD00100240C6
:1026D00010B596B01C2211496846FDF7ADFE0021E9
:1026E000684601F07FF90E4C0C491C2220601C3119
:1026F00007A8FDF7A1FE002107A801F073F907491B
:1027000060601C2238310EA8FDF796FE00210EA84D
:1027100001F068F9A06016B010BD00005048000834
:10272000000000202DE9F04186B0002434480094D8
:10273000019402940394816941F0200181618169CF
:1027400001F020010491816941F0040181618169F6
:1027500001F004010491816941F0080181618069FF
:10276000DFF8A08000F008000490012228214046F4
:10277000FEF721FC002210214046FEF71CFC224FF0
:102780000022C5213846FEF716FC012243F2020161
:102790003846FEF710FC382001250226CDE9000559
:1027A000CDE9024669464046FEF710FBC720CDE959
:1027B0000005CDE9024669463846FEF707FB4FF4AF
:1027C0004050CDE900050320CDE902406946384676
:1027D000FEF7FCFA4CF23810CDE9000469463846A1
:1027E0000294FEF7F3FA4FF41940CDE9000469466C
:1027F00040460294FEF7EAFA06B0BDE8F081000018
:102800000010024000080140000C014010B58EB0DD
:1028100000240794089409940A940B941C21684698
:102820000C94FDF75DFE26484FF0804101602321A6
:10283000C0E9011444F61F61C0E9031480218161DD
:10284000FEF750FF08B1FEF72DF94FF480500790C6
:1028500007A91B48FEF7B2FF08B1FEF723F9184895
:10286000FFF74DF908B1FEF71DF90B940BA91448B9
:102870000C94FEF703FF08B1FEF714F96020CDE9D0
:1028800000040294002269460D480494FFF7D1F831
:1028900008B1FEF707F9042269460948FFF7C9F8AD
:1028A00008B1FEF7FFF8082269460548FFF7C1F8AE
:1028B00008B1FEF7F7F80248FFF788F80EB010BD30
:1028C000FC02002010B58AB0002407941C21684641
:1028D0000894FDF705FE1B481949016040F2CF211D
:1028E000C0E9011440F2CF71C0E903148461FFF71D
:1028F00006F908B1FEF7D6F8079407A9114808941D
:10290000FEF7BCFE08B1FEF7CDF86020CDE900046B
:102910000294002269460B480494FFF78AF808B134
:10292000FEF7C0F8042269460648FFF782F808B1AE
:10293000FEF7B8F80348FFF749F80AB010BD0000E9
:10294000000400404403002010B5114C0F480C2136
:1029500020604FF4165060600020A060E060C4E981
:102960000401A061E0612046FFF7D6FA08B1FEF746
:1029700099F82068C16841F01001C160BDE81040BD
:10298000032204490248FFF78DBB000000380140D4
:102990008C0300200F0000200C4810B50A4901608C
:1029A0004FF416514160002181600C22C160C0E9E2
:1029B00004128161C161FFF7AFFA002803D0BDE8BE
:1029C0001040FEF76FB810BD00480040D40300204F
:1029D00070B50F4D0F4C287820B16168491C6160BB
:1029E000FDF75AFE0C48C07A03280FD1287800283A
:1029F0000CD1A068401CA060B0F5FA7F06D3054852
:102A00000C300078BDE87040FDF7E8BE70BD0000F6
:102A10003C0000202C000020F8040020FEE700000D
:102A200070B50C4601002648264D13D0264E0129CC
:102A300028D002290DD1002A4FF00102304636D0AD
:102A4000FEF7B9FA002204213046FEF7B4FA2868EE
:102A5000C46370BD002A4FF001024FF008010AD094
:102A60000646FEF7A8FA002210213046FEF7A3FA28
:102A70002868446370BD0446FEF79DFA01221021C8
:102A8000204619E0002A4FF001024FF0200109D042
:102A9000FEF791FA002201213046FEF78CFA2868F1
:102AA000846370BDFEF787FA0122114603E0FEF74A
:102AB00082FA012204213046BDE87040FEF77BBA5D
:102AC00000080140FC020020000C0140FEE770B548
:102AD0000024002104F1B00000F0FFF800210220E2
:102AE00000F0FBF80021102000F0F7F8002501218C
:102AF000002000F0F2F86D1CEDB2802DF7D3641CBD
:102B0000E4B2082CE5D370BD10B50A20FEF74CF9ED
:102B10000021AE2000F0E1F80021022000F0DDF8F5
:102B20000021102000F0D9F80021402000F0D5F855
:102B30000021B02000F0D1F80021812000F0CDF874
:102B40000021FF2000F0C9F80021A12000F0C5F805
:102B50000021A62000F0C1F80021A82000F0BDF857
:102B600000213F2000F0B9F80021C82000F0B5F89E
:102B70000021D32000F0B1F80021084600F0ADF8A4
:102B80000021D52000F0A9F80021802000F0A5F850
:102B90000021D82000F0A1F80021052000F09DF8C8
:102BA0000021D92000F099F80021F12000F095F8DB
:102BB0000021DA2000F091F80021122000F08DF8B9
:102BC0000021DB2000F089F80021302000F085F89A
:102BD00000218D2000F081F80021142000F07DF804
:102BE0000021BDE81040AF2000F077B810B50A46CC
:102BF0000446002102F1B00000F06FF8A41CC4F3F9
:102C0000031040F01000002100F067F804F00F00FE
:102C1000BDE81040002100F060B800002DE9F0414F
:102C2000203A00240D468046D6B27F2803D90020E2
:102C30008D1C8046EDB2102B294610D0FFF7D6FF31
:102C4000164906EB460001EB40050121285D00F026
:102C500044F8641CE4B2062CF7D3BDE8F081FFF71A
:102C6000C5FF0F4F04EB06100121385C00F035F86A
:102C7000641CE4B2082CF5D36D1CE9B24046FFF7A2
:102C8000B5FF002404EB061038440121007A00F05F
:102C900024F8641CE4B2082CF4D3DEE7CE48000824
:102CA000F64A00082DE9F041984617460E460446BC
:102CB00000250DE0434631462046FFF7AFFF0834BC
:102CC000E4B2782C02D90024B61CF6B26D1CEDB229
:102CD0007A5D002AEED1BDE8F081C0B209B100F002
:102CE000D6BD00F0BDBD000008B1044801E00348B6
:102CF000001D016841F0400101607047100C014067
:102D000010B580210348FEF751F9012800D00020BA
:102D100010BD0000000C01401FB500200190802074
:102D20000090012002900320039069460148FEF7BD
:102D30004DF81FBD000C014008B1044801E00348F4
:102D4000001D016841F0800101607047100C0140D6
:102D50001FB50020029080200090112001900320D8
:102D6000039069460148FEF731F81FBD000C014091
:102D70002DE9F041074600248EB0884626460846D5
:102D8000FDF7F6FAC5B2FD208DF8000000208DF8A1
:102D90000100E81C8DF8020001208DF8030000EB13
:102DA00007108DF804006F46B85D761C4440052E70
:102DB000FAD3002004E000BF18F800104C40401C7B
:102DC000A842F9D32A464146781DFDF7F0FA781952
:102DD00064234471AA1D69460248FFF773F90EB0D7
:102DE000BDE8F081D40300202DE9F05F042001222A
:102DF000444C022314F8101011B1012906D00BE045
:102E000004EB40014D783DB94A7005E004EB400108
:102E10004D78012D00D14B70401CC0B20528E9D976
:102E2000607A03250026A0B9E07AA0BB364F0122C4
:102E3000388881B20020FFF7F3FDB888012281B203
:102E40001046FFF7EDFD3889012281B20220FFF71D
:102E5000E7FD607A022802D003280BD01BE0002295
:102E600011461046FFF7DCFD002211460120FFF756
:102E7000D7FD6572E07A2746022814D101224FF46B
:102E800016710020FFF7CCFD01224FF4C8711046E7
:102E9000FFF7C6FD7E72E07A022804D100221146B7
:102EA000FFF7BEFDE572B146184EDFF864A00025BD
:102EB0004FF47A7840F24C474FF0080B14F81500A5
:102EC000D0B93068401C3060404503D111A10020CA
:102ED000FFF74EFF3068B8420ED18AF800B00A21E1
:102EE0008AF80110114809218AF80210017808486F
:102EF000FDF740FDC6F800906D1CEDB2032DDDD945
:102F0000BDE8F09FF8040020EC0400202800002019
:102F1000120000205B76315D5B6D315D5B74355D69
:102F2000C2FAD4D8BEAFB1A8000000000D00002046
:102F300070B51A4D4FF480412846FEF737F800B1BE
:102F40000120174C4FF40046314620702846FEF70A
:102F50002DF800B10120134DA0704FF48071284668
:102F6000FEF724F800B1012020714FF400612846DB
:102F7000FEF71CF800B10120A0714FF480512846E3
:102F8000FEF714F800B10120207231462846FEF702
:102F90000DF800B10120A07270BD0000000C0140CE
:102FA000F8040020000801400A2000F00FFDFFF7A0
:102FB000BFFFFFF719FFF7E770B50546114C00207A
:102FC00012B1012A0ED104E0084601F06DFB0E4952
:102FD00003E0084601F068FB0C4901F083FA214642
:102FE00001F01EFA0A49012D0C6806D0022D03D10A
:102FF00001F03AFB80B2A06370BD01F035FB80B2F6
:10300000606370BD000048426666663FCDCCAC3F51
:1030100044030020164D174C0A2000F0D7FC2978F5
:10302000012000F081FC2888C0F30721002000F077
:103030007BFC2088C0F30721022000F075FC21787A
:10304000032000F071FCA088C0F30721042000F0E9
:103050006BFC2179052000F067FC2089C0F3072173
:10306000062000F061FC217A072000F05DFCD3E728
:1030700038000020EC04002010B5502080F31188A7
:10308000BFF34F8FBFF36F8F01F002F918B10449FE
:103090004FF080500860002080F3118810BD0000C0
:1030A00004ED00E030B58FB028216846FDF718FA2E
:1030B00014210AA8FDF714FA01210804CDE9001033
:1030C0000024029402250491CDE907504FF4E0104A
:1030D00009906846FEF740F908B172B6FEE70F2086
:1030E000CDE90A054FF48060CDE90C4002210AA821
:1030F0000E94FEF735F8002801D072B6FEE70FB047
:1031000030BD70470148FEF7C8BB0000A404002092
:10311000F0B50268194B1A4C1A4D4FF0804798428F
:1031200005D0B84203D0A04201D0A84203D122F07A
:1031300070064A683243984205D0B84203D0A04294
:1031400001D0A84203D122F44074CA6822434C69DA
:1031500022F08002224302608A68C2620A688262A8
:10316000984201D109690163012141610169C907DF
:1031700003D0016921F001010161F0BD002C014083
:10318000000400400008004010B501F01F030121B9
:10319000046A99408C430462016A9A4011430162B7
:1031A00010BD10B5846842EA032224F47F440A4328
:1031B0002243826010BD826822F070020A4342F00E
:1031C000070181607047000030B5036A026A22F08F
:1031D000010202624268846924F073050C682C4382
:1031E00023F002058B682B430A4DA8420BD123F034
:1031F0000805CB6822F440722B434D6923F0040389
:1032000015438A692A4342608461496841630362C5
:1032100030BD0000002C014030B5026A036A23F083
:1032200010030362436884690D6824F4E64444EAA9
:1032300005248D6822F0200242EA05120B4DA842B7
:103240000ED1CD6822F0800242EA05124D6923F4C6
:10325000406343EA85038D6922F0400243EA850317
:103260004360846149688163026230BD002C014083
:1032700030B5036A026A22F4807202624268C4694D
:1032800023F4007324F073050C682C438D6843EA23
:1032900005230C4DA8420ED1CD6823F4006343EA08
:1032A00005234D6922F4405242EA05128D6923F448
:1032B000806342EA05124260C4614968C1630362E7
:1032C00030BD0000002C014030B5046A026A22F4CF
:1032D000805202624268C3690D6823F4E64343EA00
:1032E00005238D6824F4005444EA0534064DA842B1
:1032F00004D14D6922F4804242EA85124260C361E2
:1033000049680164046230BD002C014010B5036AB5
:10331000046A24F001040462846924F0F00444EA9D
:10332000021423F00A020A438461026210BD10B540
:10333000036A046A24F010040462846923F0A00381
:1033400024F4704444EA023243EA011182610162CA
:1033500010BD10B5406A0021C185C184FEF7A4FCF0
:1033600010BD70B5446A2068406994F84110C0F3FC
:10337000C0100025212904D118B1E584204600F0B1
:10338000B4F82068406994F84210C0F380102229F4
:1033900004D118B1E585204600F080F8606C40F05B
:1033A000100060642046FEF77FFC70BD10B501463A
:1033B000406A096809684FF0000289062ED4C28568
:1033C00001680C3151E8003F23F4807341E8003478
:1033D000002CF5D10168143151E8003F23F00103BE
:1033E00041E80034002CF5D10168143151E8003F68
:1033F00023F0400341E80034002CF5D1202180F86F
:103400004210016B012909D101680C3151E8003FDC
:1034100023F0100341E80034002CF5D14263016B26
:10342000012902D0FEF74CFE10BD818DFEF703FC92
:1034300010BD10B5406A01214163016B012902D022
:10344000FEF73FFE10BD818D4908FEF7F4FB10BD6D
:1034500010B50146406A09680968890616D400213A
:10346000C1840168143151E8002F22F0800241E844
:103470000023002BF5D101680C3151E8002F42F0F8
:10348000400241E80023002BF5D110BDFEF7A6FE57
:1034900010BD10B5406AFEF7A2FE10BD01680C31E8
:1034A00051E8002F22F4907241E80023002BF5D15F
:1034B0000168143151E8002F22F0010241E8002395
:1034C000002BF5D1016B012909D101680C3151E8BC
:1034D000002F22F0100241E80023002BF5D120211B
:1034E00080F8421000210163704701680C3151E8F7
:1034F000002F22F0C00241E80023002BF5D120214B
:1035000080F84110704708B590F84210222901D088
:10351000022008BD82684FF480539A4201D10169AC
:1035200021B1816A9A421BD04AB10AE00268816ADD
:103530005268C2F308020A80816A891C08E00269A5
:1035400072B10268526802F07F020A70816A491CF7
:103550008162C18D491E0904090CC18503D01BE09D
:1035600002685268F1E70168CA6822F02002CA6066
:103570000168CA6822F48072CA6001684A6922F050
:1035800001024A61202180F8421000214163026B50
:10359000012A03D0FEF794FD002008BD01630168F5
:1035A0000C3151E8002F22F0100241E80023002BDB
:1035B000F5D101680A68D20602D50A684968009107
:1035C000818DFEF738FBE7E770B5044600680169B6
:1035D000E26821F44051114301612169A068084368
:1035E000616908432168CA6841F20C639A43024347
:1035F000CA6020684169A26921F4407111434161A8
:103600001E492068884202D1FDF770FE01E0FDF7F7
:103610005DFE00EBC00101EB0012606864218000D8
:10362000B2FBF0F3B3FBF1F36FF018067343B2FB98
:10363000F0F5B2FBF0F605EB8305322303EB05153D
:10364000B5FBF1F5B6FBF1F605F0F00505EB061557
:10365000B2FBF0F6B2FBF0F0B0FBF1F06FF0180245
:10366000504306EB800003EB0010B0FBF1F0216843
:1036700000F00F002844886070BD00000038014051
:1036800038B5816204468285002013466064222298
:1036900084F84220E56B1B4AAA62E56B1A4AEA628B
:1036A000E56B1A4A2A63E26B50630A462168E06BB5
:1036B000091DFDF741FB2068016840680090206902
:1036C00048B120680C3050E8001F41F4807140E898
:1036D0000012002AF5D12068143050E8001F41F094
:1036E000010140E80012002AF5D12068143050E8AA
:1036F000001F41F0400140E80012002AF5D10020EF
:1037000038BD0000AD3300083334000863330008CF
:103710002DE9F843984617460D460446089E24E0D6
:10372000701C22D0FDF74CFCA0EB0800B0421AD868
:10373000CEB12068C168490717D5802D15D0402D1E
:1037400013D00168C94309070FD4016800254068F8
:1037500000902046FFF7A2FE0820606484F84050E5
:103760000120BDE8F8830320FBE72068006835EA04
:10377000000004D00020B842D2D00020F1E70120A0
:10378000F9E70000F8B5184800680168174D184CB3
:10379000C1F30011002669B1016840680090124829
:1037A000FEF74AFA134800684068C0F10300207031
:1037B00001202870287801280BD12078032808D10F
:1037C0000D48FDF7E7F826702E7021780B48FCF7BE
:1037D00065FE032209490448FEF764FCBDE8F84091
:1037E0000148FEF763BA00008C0300200E000020A1
:1037F0000C0000201C0400203C0000200F000020D2
:10380000FEE700002DE9F041144F04464FF48056C6
:10381000002231463846FDF7CEFB00254FF4005814
:1038200004F08000802816D0002241463846FDF77B
:10383000C2FB6006040E012231463846FDF7BBFB91
:10384000002231463846FDF7B6FB6D1CEDB2082D5F
:10385000E6D3BDE8F0810122E7E70000000C01405B
:1038600010B50446FEF780FD7820FFF7CBFFFEF78A
:10387000ADFD0020FFF7C6FFFEF7A8FD2046FFF7CD
:10388000C1FFFEF7A3FDBDE81040FEF789BD10B5EE
:103890000446FEF769FD7820FFF7B4FFFEF796FDBA
:1038A0004020FFF7AFFFFEF791FD2046FFF7AAFF8C
:1038B000FEF78CFDBDE81040FEF772BD0907090E4A
:1038C000002804DB00F1E02080F80014704700F0CD
:1038D0000F0000F1E02080F8141D7047002100E087
:1038E000491C8142FCD3704710B50446FEF7DFFC4B
:1038F000A020FEF79DFCFEF710FD2046FEF798FC89
:10390000FEF70BFDFEF7EEFCFEF7D1FCA120FEF763
:103910008FFCFEF702FDFEF764FC0446FEF7AFFCE9
:10392000FEF7E0FC204610BD70B50D460446FEF7DC
:10393000BEFCA020FEF77CFCFEF7EFFC2046FEF765
:1039400077FCFEF7EAFC2846FEF772FCFEF7E5FC82
:10395000BDE87040FEF7C6BCFDF740FBFFF7A2FBD9
:10396000FEF7E0FEFEF796FEFFF716F8FEF7ECFF17
:10397000FEF74CFFFEF7A6FF00210F48FEF702F905
:1039800004210D48FEF7FEF808210B48FEF7FAF86F
:1039900000210A48FEF7F6F804210848FEF7F2F87D
:1039A000FFF7B2F8FFF793F8FEF722FDFEF790FE5F
:1039B00000F013F8FEE70000FC02002044030020A2
:1039C00001460020842900D0C81C704710B500B9FA
:1039D000012000F01FFB002010BD10B500F040FBDF
:1039E000002010BD7FB50D4604464169B0F90800BE
:1039F00081B1A16971B1FFF7E3FFD4E905128DE848
:103A00000700D4E900102B46226900F016FC039051
:103A100004B070BDFFF7D4FF03A9CDE90001208AEF
:103A20002B4682B2D4E9001000F0DAFB012801D065
:103A30000020EDE70398EBE72DE9F041184C0F4625
:103A40000546E6682068001D00F01CFA38B92068B9
:103A500090F82C1001208840216981432161681C65
:103A600007D137B12168BDE8F0410E48091D00F0CB
:103A70004DBA20683544B5424560216805D2A06B37
:103A8000BDE8F041091D00F029BA606B091D00F086
:103A900025FAA06A854200D2A562BDE8F081000047
:103AA00040000020000600202DE9F041054600F00E
:103AB00039FA2E4CA068401CA06020682C4F10B131
:103AC000606940B32DE02560A068012829D1002657
:103AD00006EB860007EB800000F0F2F9761C072E5B
:103AE000F6D323488C3000F0EBF92148A03000F0E9
:103AF000E7F91F48B43000F0E3F91D48C83000F082
:103B0000DFF91B48DC3000F0DBF919488C306063CA
:103B10001430A06305E02068E96AC06A884200D8D2
:103B20002560606A401C6062E96A01202269884061
:103B30001043206101EB810007EB8000291D00F09C
:103B4000E5F900F00FFA606900280CD02068E96AF6
:103B5000C06A884207D207494FF080500860BFF31F
:103B60004F8FBFF36F8FBDE8F08100004000002051
:103B70002405002004ED00E010B5044690F8510043
:103B800058B101280CD002280FD0502080F31188A2
:103B9000BFF34F8FBFF36F8FFEE7206B00F0F6F996
:103BA0002046BDE8104000F0F1B910BD10484FF4B8
:103BB0004061420706D0C01D0D4920F00700411AA0
:103BC000C1F540610B4A00230144C2E900030839F2
:103BD000183A21F0070111604B600B600B1AC0E925
:103BE000001393604FF00040536050617047000035
:103BF0001406002094000020144E154CA6F1C807AE
:103C00004FF08058DFF84C9012E000BF00F08AF9C6
:103C1000F068C568281D00F035F9A068401EA06056
:103C20006068401E606000F09DF92846FFF7A4FF21
:103C300060680028EAD138680128F9D9C9F80080FD
:103C4000BFF34F8FBFF36F8FF2E70000EC0500204A
:103C50004000002004ED00E02DE9F0479A46DDE940
:103C6000098481466FF00303206B03EB820210444A
:103C7000089E20F00707780707D0502080F31188AE
:103C8000BFF34F8FBFF36F8FFEE7002561B10020B8
:103C900023180A5C83F834200A5C12B1401C1028F7
:103CA000F6D384F8435001E084F83450072E00D353
:103CB0000626E662C4E91165201D00F00CF904F146
:103CC000180000F008F92461C6F107006462A061E1
:103CD000E56484F8505052464946384600F0C0F832
:103CE0002060B8F1000F01D0C8F80040BDE8F087AF
:103CF00030B5114900E011460A688242FBD34B6897
:103D00005C18844203D14068184448600846436800
:103D10001C18944209D1084C183C2468A24209D0CE
:103D200052681A4442600A6812680260814200D0F8
:103D3000086030BD0460F9E7940000200648416B3C
:103D4000096829B1416BC968C968496881627047CF
:103D50004FF0FF31FAE700004000002008484068BB
:103D6000401C4FF0500080F3118804D0BFF34F8FF8
:103D7000BFF36F8FFEE7BFF34F8FBFF36F8FFEE789
:103D80009C0000202DE9F0410546002700F09EF937
:103D9000324E306808B9FFF709FF706905424ED10D
:103DA000C5B3083568070ED005F00700C0F108005C
:103DB0000544680707D0502080F31188BFF34F8F68
:103DC000BFF36F8FFEE72DB37068854237D8234865
:103DD000183001460C6801E020460C466168A94293
:103DE00002D221680029F7D131688C4227D00768B8
:103DF0002168016060680837411B10290FD96019DC
:103E0000420708D0502080F31188BFF34F8FBFF3D3
:103E10006F8FFEE713E041606560FFF769FF61683F
:103E20007068401A7060B268904200D2B0607069E9
:103E300001430020C4E90001F068401CF06000F07C
:103E40008DFA780707D0502080F31188BFF34F8F89
:103E5000BFF36F8FFEE73846BDE8F0817C0000209D
:103E600010B5031F4FF080741C601B1F21F001016F
:103E70001960191F024B0B60143940380A6010BDDD
:103E80005D3D0008D0E9013201699A60D0E9012363
:103E90005A604A68824201D182684A600022026107
:103EA0000868401E0860086870470000034B036004
:103EB00003F154000860802010607047A8000020C3
:103EC00000F108014FF0FF32C0E90112C160016149
:103ED00000210160704700210161704730B50B6817
:103EE0005A1C02D000F1080202E0026904E02246F6
:103EF000546825689D42FAD953684B6099608A607E
:103F0000516008610168491C016030BD42684A6027
:103F100093688B6093685960916008610168491CDF
:103F200001607047502080F31188BFF34F8FBFF3BB
:103F30006F8F0A494868401C486001280CD1084826
:103F4000006810F0FF0F07D0502080F31188BFF3F6
:103F50004F8FBFF36F8FFEE7704700009C0000207B
:103F600004ED00E00849486828B1401E486001D1CE
:103F700080F311887047502080F31188BFF34F8F72
:103F8000BFF36F8FFEE700009C00002070B5002893
:103F90002AD0164DA0F1080460686969084207D16B
:103FA000502080F31188BFF34F8FBFF36F8FFEE770
:103FB00022683AB1502080F31188BFF34F8FBFF3CE
:103FC0006F8FFEE78843606000F080F86068696882
:103FD000084468602046FFF78BFE2869401C286172
:103FE000BDE8704000F0BAB970BD00007C00002050
:103FF0004FF0E02000210161816105494FF47A72A0
:104000000968B1FBF2F1491E416107210161704766
:104010002400002010B5020014D00F48006B38B106
:10402000502080F31188BFF34F8FBFF36F8FFEE7EF
:1040300000F04CF800211046FFF7FEFC00F08EF96E
:10404000002807D105494FF080500860BFF34F8F1B
:10405000BFF36F8F10BD00004000002004ED00E0B2
:1040600010B586B00024039405AA04A903A80494FB
:10407000FFF71CFFDDE903010094CDE901100023E7
:104080000EA11048059A00F0D8F80F490028C86220
:1040900011D0502080F31188BFF34F8FBFF36F8F83
:1040A0004FF0FF30886201204861CC6006B0BDE867
:1040B000104000F041B806B010BD000049444C4526
:1040C00000000000F93B0008400000200248016B9E
:1040D000491C016370470000400000201448016B38
:1040E00011B10121C16170470021C1610169B1FABB
:1040F00081F1C1F11F0101EB81020E4951F822301B
:104100006BB101EB820101F108034A6852684A6011
:104110009A4201D152684A60D168016070475020CC
:1041200080F31188BFF34F8FBFF36F8FFEE700005E
:1041300040000020240500201CB526490878019085
:10414000FF20087008788DF800009DF800009DF8A9
:10415000002000F0F000904207D0502080F311883A
:10416000BFF34F8FBFF36F8FFEE79DF800001A4C2F
:1041700000F0500020700720A06005E09DF80020AE
:1041800052008DF80020401E9DF800201206F5D444
:10419000A060032807D0502080F31188BFF34F8F11
:1041A000BFF36F8FFEE74FF44070A0600198087076
:1041B0000A48016841F470010160016841F07041F2
:1041C0000160FFF715FF00206060FBF7F3FF0020A0
:1041D0001CBD000000E400E09C00002020ED00E099
:1041E0002DE9FF5F8346DDE90E87994616468A462C
:1041F0009000FFF7C7FD05001CD05420FFF7C2FD5B
:10420000040014D00020256384F85100CDE9024059
:10421000CDE900874B46324651465846FFF71CFD14
:104220002046FFF741FC012004B0BDE8F09F28467E
:10423000FFF7ACFE4FF0FF30F6E7F0B585B0DDE9F3
:104240000B640A9DA6B1DCB15427009726630226B1
:1042500084F85160002604AFCDE90246CDE900574D
:10426000FFF7FAFC2046FFF71FFC049805B0F0BDED
:10427000502080F31188BFF34F8FBFF36F8FFEE79D
:10428000502080F31188BFF34F8FBFF36F8FFEE78D
:104290002DE9F0412F4C0026206B28B1A069401C6D
:1042A000A0613046BDE8F081E5686D1CE56013D182
:1042B000606B006838B1502080F31188BFF34F8FD6
:1042C000BFF36F8FFEE7606BA16B6163A063206A31
:1042D000401C2062FFF732FDA06ADFF87C80854237
:1042E00009D3606B0068A0B1606BC068C76878686C
:1042F000854211D2A0622068C06A00EB800158F8A4
:104300002100012800D90126E0690028C9D0012632
:10431000C7E74FF0FF30EDE7381DFFF7B3FDB86A90
:1043200018B107F11800FFF7ADFDF96A0120226905
:1043300088401043206101EB810108EB8100391DA9
:10434000FFF7E4FDF86A2168C96A8842C9D30126EB
:10435000C7E7000040000020240500202DE9F047B9
:104360002C4D00242746286B38B1FFF7DBFD286B66
:10437000401E2863286B40B146E0502080F311882E
:10438000BFF34F8FBFF36F8FFEE7A968224E012066
:10439000D1B3A6F1B40980463068E8B1F068C468CA
:1043A00004F11800FFF76EFD201DFFF76BFDE06ABA
:1043B0002A6908FA00F11143296100EB800109EB39
:1043C0008100211DFFF7A2FDE06A2968C96A8842C1
:1043D000E2D3C5F81C80DFE70CB1FFF7AFFCAC6996
:1043E00044B14646FFF754FF00B1EE61641EF9D1B7
:1043F0000020A861E86938B108490127380708603A
:10440000BFF34F8FBFF36F8FFFF7ACFD3846BDE8AA
:10441000F087000040000020D805002004ED00E0F7
:1044200090EA010F48BF81F0004100F1A281421AD9
:104430003CBF801A89184FEAD0524FF07F4C1CEADB
:10444000410FA2EBD15318BF9CEA026F00F03B80F2
:104450004FF0004C4CEA00204CEA012121FA03FC09
:1044600010EB0C0C1ED202F1FF325FEA1C2040EB75
:10447000C25038BF70471CF07F0F4FEA400C18BF86
:10448000BCF17F4F38BF7047C3F12003994008BF8C
:1044900020F00100BCF17F4F38BF7047A0F1C04051
:1044A00000F05BB94FEA3C00000A40EBC25028BF65
:1044B0001CF0FF0F4FEA400CE6D018BFBCF17F4F55
:1044C00038BF7047EAE79CEA026F05D010EA5C0F3C
:1044D00008BF00F00040704710B500F0F8F800BFCA
:1044E00064FBBE3E4FF47F0C1CEAD0121EBF1CEAD8
:1044F000D11392EA0C0F93EA0C0F00F0858090EA3A
:10450000010F48BF42F4807240F4000C41F40000F7
:104510002CF07F4120F07F4000B58142A2EB0302E6
:104520000FF2081CACEB504EC0F100009EF800E00A
:104530004FEA4E0E00FB0EFC38BF49004FEA2C1C20
:1045400002F5FA020CFB0EF34FEACE1E4FEA112CD5
:104550004FEAC1210EEB635E42EB22420EFB0CFCE4
:104560004FEA1C5300FB03114FEA112C4FEA0131B3
:104570000EFB0CFC4FEADC4C00FB0C11C14228BFC7
:1045800009184CEB03335DF804EB10EB410143EBEE
:10459000C250B2F57C0F38BF704729D512F0F00F2A
:1045A0001CBF00F1C04000F00040704700818283D2
:1045B0008485868788898B8C8D8E8F919293959632
:1045C00097999A9C9D9FA0A2A3A5A7A8AAACAEB0BC
:1045D000B2B3B5B7B9BCBEC0C2C5C7C9CCCED1D4C1
:1045E000D7D9DCDFE2E6E9ECF0F3F7FAFE000000F1
:1045F0004FEA400C0CF1807CBCF17E4F28BF704725
:10460000B0F1C04000F0A9B890EA010F0CEAD11354
:1046100048BF42F48072624538BF634507D213F445
:104620007F0F16D080EA010000F00040704710B5FF
:1046300000F04DF8097EFC3E00F005B880EA01006C
:1046400000F00040704780EA010000F0004000F0F8
:1046500084B812F47F0F04BF0248704780EA01005B
:1046600000F07BB80000C07FC10DD1F19E0206DBD7
:104670004FEA002343F0004323FA02F07047004260
:1046800007D54FEA4001B1F1FE4F02D24FF00000D2
:10469000704710B500F01BF8499224800020704745
:1046A0006FEA200070470000B0FA80F310FA03F2BE
:1046B000C3F19D030AD0D90501EB1220530638BF80
:1046C000704700F1010008BF20F0010070470EF1B3
:1046D000020E2EF0030E5EF8044B244204D44FEA7F
:1046E0004102B2F17F4F11D84FEA4003B3F17F4F3F
:1046F0000CD80ED14FEAD07CB2F17F4F0CEB4C0CB2
:104700000CF1020C08BF4CEBD17C04E04FF0080C1C
:1047100001E04FEAD17C0CEB4C0324FA03F404F0E3
:104720000704B4F1040C06D20EEB840CBDE8104073
:104730004CF0010C6047DFE80CF0070802024FF074
:104740000040A0F5800010BD0846420018BFD2F11D
:10475000807288BF00F0004010BDFF2141EAD050B8
:10476000C005704790EA010F48BF81F000413FF556
:104770005EAE421A04D882F00042A0EB020011445F
:104780004FEAD0524FF07F4C1CEA410FA2EBD153BD
:1047900018BF9CEA026F4AD04FF0004C4CEA002050
:1047A0004CEA012121FA03FCB0EB0C0C0FD412F0FF
:1047B000FE0F36D05FEA4C001DD5001240EBC25010
:1047C00038BF70471CF03F0F18BF70470BE0A2F1D5
:1047D00001025FEA1C2040EBC25038BF70471CF05A
:1047E0007F0F18BF7047C3F12003994014BF401ECC
:1047F00020F00100704780084FEA122308BF70477D
:10480000B0FA80FCA2EB0C02CCF1280C60FA0CF0A0
:1048100093EA122F04BF00EBC25070474FEAC370F7
:104820007047130A5FEADC1008BF7047F6E79CEA9E
:10483000026F04D010EA5C0F08BF0020704710B56B
:10484000FFF745FF40DFF63E81F000407047000073
:1048500000510008153000080000000000000000B2
:10486000800000000000000000000000E850000888
:104870005526000800000000000000008000000035
:104880000000000000000000F4500008A92F0008FC
:104890000000000000000000800000000000000098
:1048A00000000000010202030405060708090A0BC4
:1048B0000C0D0E0F1010000000000000000001029F
:1048C00003040607080900000000010203040000B9
:1048D000000000000000002F00000000070007009B
:1048E00000147F147F1400242A7F2A1200626408B7
:1048F0001323003649552250000005030000000034
:104900001C224100000041221C000014083E081433
:104910000008083E0808000000A060000008080821
:104920000808000060600000002010080402003E3B
:104930005149453E0000427F4000004261514946D6
:10494000002141454B31001814127F1000274545C6
:104950004539003C4A4949300001710905030036D8
:104960004949493600064949291E000036360000EB
:1049700000005636000000081422410000141414F0
:1049800014140000412214080002015109060032EB
:104990004959513E007C1211127C007F4949493629
:1049A000003E41414122007F4141221C007F494994
:1049B0004941007F09090901003E4149497A007FC8
:1049C0000808087F0000417F4100002040413F016E
:1049D000007F08142241007F40404040007F020CCD
:1049E000027F007F0408107F003E4141413E007F6E
:1049F00009090906003E4151215E007F0919294637
:104A00000046494949310001017F0101003F404012
:104A1000403F001F2040201F003F4038403F0063C0
:104A200014081463000708700807006151494543E2
:104A300000007F41410000552A552A5500004141A0
:104A40007F0000040201020400404040404000009A
:104A500001020400002054545478007F4844443834
:104A600000384444442000384444487F00385454BB
:104A7000541800087E0901020018A4A4A47C007F39
:104A8000080404780000447D4000004080847D00DC
:104A9000007F102844000000417F4000007C041883
:104AA0000478007C0804047800384444443800FC4E
:104AB000242424180018242418FC007C080404086A
:104AC00000485454542000043F444020003C4040DF
:104AD000207C001C2040201C003C4030403C004416
:104AE00028102844001CA0A0A07C004464544C441E
:104AF000141414141414000000000000000000003E
:104B0000000000000000000000F8000000000000AD
:104B100000333000000000100C06100C06000000EE
:104B200000000000000040C07840C0784000043F12
:104B300004043F040400007088FC083000000018E2
:104B400020FF211E0000F008F000E0180000002106
:104B50001C031E211E0000F00888700000001E21AA
:104B600023241927211010160E0000000000000059
:104B7000000000000000000000E018040200000037
:104B800000071820400000020418E0000000004068
:104B9000201807000000404080F0804040000202E2
:104BA000010F01020200000000F0000000000101FE
:104BB000011F01010100000000000000000080B0A2
:104BC0007000000000000000000000000000000174
:104BD000010101010101000000000000000000309F
:104BE0003000000000000000000080601804006039
:104BF00018060100000000E010080810E000000F97
:104C0000102020100F00001010F8000000000020FD
:104C1000203F202000000070080808887000003045
:104C200028242221300000300888884830000018ED
:104C3000202020110E000000C02010F80000000706
:104C40000424243F240000F808888808080000197C
:104C5000212020110E0000E0108888180000000FAD
:104C6000112020110E0000380808C8380800000084
:104C7000003F000000000070880808887000001CD9
:104C8000222121221C0000E010080810E000000092
:104C9000312222110F00000000C0C00000000000FF
:104CA0000030300000000000008000000000000024
:104CB000806000000000000080402010080000011B
:104CC00002040810200040404040404040000404DE
:104CD00004040404040000081020408000000020A8
:104CE000100804020100007048080808F0000000E5
:104CF000003036010000C030C828E810E000071876
:104D0000272423140B000000C038E0000000203CE2
:104D100023020227382008F8888888700000203F86
:104D2000202020110E00C03008080808380007189D
:104D300020202010080008F808080810E000203F94
:104D4000202020100F0008F88888E8081000203F75
:104D500020202320180008F88888E8081000203F49
:104D6000200003000000C0300808083800000718C1
:104D70002020221E020008F808000008F808203F42
:104D8000210101213F20000808F808080000002048
:104D9000203F2020000000000808F8080800C0801C
:104DA00080807F00000008F888C028180800203F95
:104DB00020012638200008F8080000000000203FED
:104DC00020202020300008F8F800F8F80800203FE4
:104DD000003F003F200008F830C00008F808203FDE
:104DE000200007183F00E01008080810E0000F102E
:104DF000202020100F0008F808080808F000203FC5
:104E0000210101010000E01008080810E0000F185F
:104E1000242438504F0008F8888888887000203F84
:104E20002000030C30200070880808083800003883
:104E3000202121221C00180808F80808180000008A
:104E4000203F2000000008F808000008F808001FB4
:104E5000202020201F000878880000C838080000A3
:104E600007380E010000F80800F80008F800033CBD
:104E70000700073C03000818688080681808203085
:104E80002C03032C30200838C800C8380800000064
:104E9000203F2000000010080808C838080020380B
:104EA000262120201800000000FE0202020000005F
:104EB000007F40404000000C30C0000000000000B7
:104EC00000010638C00000020202FE00000000409F
:104ED00040407F00000000000402020204000000C5
:104EE00000000000000000000000000000008080C2
:104EF00080808080808000020204000000000000AA
:104F00000000000000000000808080800000001988
:104F1000242222223F2008F8008080000000003F69
:104F2000112020110E000000008080800000000E83
:104F3000112020201100000000808088F800000E61
:104F4000112020103F200000808080800000001F82
:104F5000222222221300008080F0888888180020F6
:104F6000203F202000000000808080808000006BB7
:104F700094949493600008F8008080800000203FA3
:104F8000210000203F2000809898000000000020B1
:104F9000203F20200000000000809898000000C002
:104FA0008080807F000008F8000080808000203F23
:104FB00024022D302000000808F800000000002026
:104FC000203F202000008080808080808000203F63
:104FD00020003F20003F8080008080800000203F34
:104FE000210000203F200000808080800000001F02
:104FF000202020201F00808000808000000080FF93
:10500000A12020110E000000008080808000000E92
:10501000112020A0FF8080808000808080002020E0
:105020003F2120000100000080808080800000334C
:10503000242424241900008080E0808000000000E7
:10504000001F202000008080000000808000001FE2
:10505000202020103F208080800000808080000180
:105060000E300806010080800080008080800F30B4
:105070000C030C300F000080800080808000002036
:10508000312E0E3120008080800000808080808161
:105090008E701806010000808080808080000021D2
:1050A000302C2221300000000000807C0202000031
:1050B0000000003F404000000000FF000000000032
:1050C0000000FF0000000002027C800000000040A1
:1050D000403F00000000000601010202040400003D
:1050E00000000000000000004C6F6F705461736B93
:1050F0000000000053656E736F725461736B0000A3
:1051000064656661756C745461736B002C510008A2
:1051100000000020A800000028010008D451000869
:10512000A8000020D0170000440100080000000083
:10513000000000000000000000030000000000006C
:10514000000000000100000010000000000000004E
:1051500000127A00000000000000000000000000C3
:10516000000000000000000000000000000000003F
:10517000000000000000000000000000000000002F
:10518000000000000000000000000000000000001F
:10519000000000000000000000000000000000000F
:1051A00000000000000000000000000000000000FF
:1051B00000000000000000000000000000000000EF
:1051C000000000000000000000000000AAAAAAAA37
:0451D00000000000DB
:04000005080000ED02
:00000001FF
